:100000000C9477020C94A7100C94CA030C949F02D2
:100010000C949F020C949F020C949F020C949F02DC
:100020000C949F020C942B040C949F020C949F023E
:100030000C949F020C949F020C949F020C949F02BC
:100040000C940F0F0C949F020C9401060C94330631
:100050000C949F020C949F020C949F020C949F029C
:100060000C949F020C949F020509D909D9093909FA
:1000700065098409D9097209D909AF09D9099B0908
:10008000B509416461667275697420426C75656674
:1000900072756974204C6F7720456E6572677920A0
:1000A0006E5246383030312043616C6C6261636B54
:1000B000204563686F2064656D6F00205D00205BE4
:1000C000002062797465733A200052656365697631
:1000D00065642000446973636F6E6E656374656464
:1000E000206F72206164766572746973696E67202F
:1000F00074696D6564206F757400436F6E6E65631F
:1001000074656421004164766572746973696E6711
:1001100020737461727465640020205069706520DA
:100120004572726F7220436F64653A2030780041E7
:100130004349204576742050697065204572726F7E
:10014000723A205069706520233A00457674204346
:100150006D6420726573706F6E653A204572726FC0
:10016000722E2041726475696E6F20697320696E0A
:1001700020616E207768696C652831293B206C6F9F
:100180006F700041434920436F6D6D616E642000C4
:100190004572726F7220696E204143492053657425
:1001A0007570000957726974696E67206F6E6520FB
:1001B00062797465203078002030780009577269C0
:1001C00074696E67206F757420746F2042544C45BB
:1001D0003A000007060000030241D70000000000BB
:1001E000000000000000000000000000000000000F
:1001F000000000001F0610000000000000000400C6
:100200000401010000060000900000000000000052
:1002100000000000001F06101C010200000000008A
:1002200000000000000000000000000014000000BA
:100230001403900164001F06103802FF02580005E5
:10024000000000000000000000000010000000009E
:10025000000000000000000506105400000000002F
:10026000000000000000000000000000000000008E
:1002700000000000000000001F062000040402022D
:1002800000012800010018040405050002280301EC
:100290000E0300002A041407001F06201C0400039C
:1002A0002A00015541525469637304040505000492
:1002B000280301020500012A06001F062038040356
:1002C0000200052A010100000404050500062803B8
:1002D00001020700042A06040908001F0620540032
:1002E000072A04010600120000000A0004040202AA
:1002F0000008280001011804041010001F062070D7
:1003000000092800019ECADC240EE5A9E093F3A3AE
:10031000B50100406E04041313000A28001F0620D4
:100320008C0301040B009ECADC240EE5A9E093F3C4
:10033000A3B50200406E44101400000B00001F061D
:1003400020A80202000000000000000000000000E1
:10035000000000000000000004041313000C001F44
:100360000620C4280301100D009ECADC240EE5A956
:10037000E093F3A3B50300406E14001400000D00D9
:100380001F0620E000030200000000000000000043
:1003900000000000000000000000004614030200FE
:1003A000001F0620FC0E29020100000404020200C6
:1003B0000F2800010A180404050500102803010293
:1003C00011001906211800272A0404090100112A26
:1003D00027010A00000000000000000000000000EB
:1003E0000000001F0640002A0001008004000300F6
:1003F00000000202000804000B00000003020002DB
:1004000004000D000F06401C000E2A270100800486
:1004100000110000000000000000000000000000CB
:100420000000000000130650009ECADC240EE5A95F
:10043000E093F3A3B50000406E0000000000000050
:100440000000000000000F06600000000000000037
:10045000000000000000000000000000000000009C
:10046000000000000000000606F00003D388000032
:10047000000000000000000000000000000000007C
:1004800000000000000000436D6420517565756533
:100490002046756C6C00002C200000000008000253
:1004A000010000030407000000000000000001023A
:1004B00004081020408001020408102001020408F2
:1004C00010200404040404040404020202020202D0
:1004D00003030303030300000000250028002B0092
:1004E00000000000240027002A00B5046306112440
:1004F0001FBECFEFD8E0DEBFCDBF12E0A0E0B1E07D
:10050000E6EAF2E202C005900D92A837B107D9F7EA
:1005100026E0A8E7B2E001C01D92A839B207E1F7D2
:1005200014E0CEEED4E004C02297FE010E943B11FD
:10053000CA3ED107C9F70E94A6040C9451110C942D
:100540000000DF92EF92FF920F931F93CF93DF9300
:10055000EC01D62E6AEC70E084EA92E00E94E40698
:100560004AE050E06D2D84EA92E00E94020861ECBE
:1005700070E084EA92E00E94E4068E01ED2CF12CFA
:10058000C8018C1B9D0B8E159F0544F4F8016191E9
:100590008F0184EA92E00E940B07F2CF6EEB70E0CD
:1005A00084EA92E00E94E4068E01C8018C1B9D0B38
:1005B0008E159F05A4F461E171E084EA92E00E9447
:1005C0000907F80181918F01682F772767FD7095E2
:1005D00040E150E084EA92E00E94ED07E6CF6BEB49
:1005E00070E084EA92E00E9426074D2DBE0188E764
:1005F00092E0DF91CF911F910F91FF90EF90DF90EC
:100600000C94DC09853839F0863841F0813861F482
:1006100065E071E005C06AEF70E002C064ED70E073
:1006200084EA92E00C94260708958CB580628CBD14
:10063000089508958EBD00000DB407FEFDCF8EB560
:1006400008959CB5937F982B9CBD08952CB5982F49
:1006500093702C7F922B9CBD9DB582FB882780F9DF
:100660009E7F982B9DBD08955D982A9A8CB58F7DAD
:100670008CBD80E00E94210385E00E94260365E195
:1006800071E084EA92E00C94380788E792E00C94D9
:10069000EB0863E371E084EA92E00E94380710926D
:1006A000B000E1EBF0E01082A0E7B0E08C91816057
:1006B0008C9380818460808368E471E084EA92E0B6
:1006C0000C9438076FE571E084EA92E00E943807E5
:1006D00053985B9AE9E6F0E0808188608083E99A2C
:1006E00069E771E084EA92E00C9438078130910563
:1006F00019F0029789F008955D9A2A980E941503CF
:1007000080E00E94210385E00E94260365E971E0F4
:1007100084EA92E00E9438070C94340364EB71E0A1
:1007200084EA92E00E943807559A229A0E94340384
:1007300088E080939B020E941A0390E090939A02B3
:10074000809399024AE050E060919B0284EA92E033
:100750000E94090867EC71E084EA92E00E94380781
:100760006091990270919A024AE050E084EA92E026
:100770000E9420086AED71E084EA92E00E94380746
:1007800081E090E00E9476036FEE71E084EA92E0EF
:100790000C9438071F920F920FB60F9211242F93CB
:1007A0003F934F935F936F937F938F939F93AF93F9
:1007B000BF93EF93FF934091A0025091A1026091EB
:1007C000A2027091A30280919C0290919D02A0913F
:1007D0009E02B0919F0288539F4FAF4FBF4F841727
:1007E0009507A607B70700F565E172E084EA92E095
:1007F0000E94380745E060E071E088E792E00E94DF
:10080000DC098091A0029091A102A091A202B09176
:10081000A30280939C0290939D02A0939E02B093AA
:100820009F0266E272E002C06AE372E084EA92E04C
:100830000E943807FF91EF91BF91AF919F918F91E7
:100840007F916F915F914F913F912F910F900FBECC
:100850000F901F9018951F920F920FB60F921124B0
:100860008F939F93AF93BF938091A0029091A10229
:10087000A091A202B091A3020196A11DB11D809387
:10088000A0029093A102A093A202B093A302BF91F1
:10089000AF919F918F910F900FBE0F901F90189561
:1008A0001092850010928400A0E8B0E01C92E1E86C
:1008B000F0E0108287E090E09093890080938800B8
:1008C0008C9180648C93808188608083808181603A
:1008D0008083219A089526E040E855E260E070E0C8
:1008E00084EA92E00E949F0562E870E084EA92E068
:1008F0000E94260761EA72E088E792E00E94E7081A
:1009000062E073E088E792E00E94E3081092A002A0
:100910001092A1021092A2021092A30210929C02C5
:1009200010929D0210929E0210929F0240E550E0AC
:1009300060E070E088E792E00E94770A0E9462031C
:100940000E9449030E9450040C948E030E94A40F3D
:100950000E9419030E946B04C9EED4E00E94450373
:100960002097E1F30E94E904F9CF27E042E06AE032
:1009700088E792E00C94AD08FC01818D228D90E017
:10098000805C9F4F821B91098F7399270895FC010A
:10099000918D828D981731F0828DE80FF11D858D34
:1009A00090E008958FEF9FEF0895FC01918D828D67
:1009B000981761F0828DDF01A80FB11D5D968C91B3
:1009C000928D9F5F9F73928F90E008958FEF9FEFBE
:1009D000089589E596E0892B49F080E090E0892B25
:1009E00029F00E94590681110C9400000895FC0121
:1009F000848DDF01A80FB11DA35ABF4F2C91848DA8
:100A000090E001968F739927848FA689B7892C93DC
:100A1000A089B1898C9180648C93938D848D981377
:100A200006C00288F389E02D80818F7D8083089540
:100A3000CF93DF93EC01888D8823C9F0EA89FB8985
:100A4000808185FD05C0A889B9898C9186FD0FC07C
:100A50000FB607FCF5CF808185FFF2CFA889B98951
:100A60008C9185FFEDCFCE010E94F704E7CFDF9197
:100A7000CF910895CF92DF92FF920F931F93CF9360
:100A8000DF931F92CDB7DEB76C01DC015B969C91C2
:100A90005B975C968C915C97981307C05096ED918C
:100AA000FC915197808185FD32C0F601038D10E0E5
:100AB0000F5F1F4F0F731127F02EF601848DF81270
:100AC00011C00FB607FCF9CFD6015096ED91FC91FD
:100AD0005197808185FFF1CFC60169830E94F70499
:100AE0006981EBCF838DE80FF11DE35AFF4F6083DF
:100AF000D6015B960C935B975296ED91FC915397C0
:100B000080818062808381E058968C930DC0D601ED
:100B10005696ED91FC91579760835096ED91FC911C
:100B2000519780818064808381E090E00F90DF9115
:100B3000CF911F910F91FF90DF90CF900895BF92BA
:100B4000CF92DF92EF92FF92CF93DF93EC016A0195
:100B50007B01B22EE889F98982E08083411581EE1C
:100B6000580761057105A1F060E079E08DE390E040
:100B7000A70196010E94171121503109410951091D
:100B80005695479537952795211580E1380798F0B8
:100B9000E889F989108260E874E88EE190E0A701A5
:100BA00096010E94171121503109410951095695AA
:100BB000479537952795EC85FD853083EE85FF8534
:100BC0002083188EEC89FD89B082EA89FB898081B7
:100BD00080618083EA89FB89808188608083EA89DB
:100BE000FB89808180688083EA89FB8980818F7D91
:100BF0008083DF91CF91FF90EF90DF90CF90BF90F7
:100C000008951F920F920FB60F9211242F938F9376
:100C10009F93EF93FF93E091B402F091B50280812E
:100C2000E091BA02F091BB0282FD12C090818091E6
:100C3000BD028F5F8F732091BE02821751F0E09149
:100C4000BD02F0E0EC55FD4F958F8093BD0201C0D1
:100C50008081FF91EF919F918F912F910F900FBE07
:100C60000F901F9018951F920F920FB60F9211249C
:100C70002F933F934F935F936F937F938F939F93A4
:100C8000AF93BF93EF93FF9384EA92E00E94F7043F
:100C9000FF91EF91BF91AF919F918F917F916F9154
:100CA0005F914F913F912F910F900FBE0F901F902A
:100CB000189584EA92E00E94BC0421E0892B09F493
:100CC00020E0822F08951092A7021092A60288EECB
:100CD00093E0A0E0B0E08093A8029093A902A093D3
:100CE000AA02B093AB0283E592E09093A5028093B1
:100CF000A40285EC90E09093B1028093B00284EC62
:100D000090E09093B3028093B20280EC90E09093D5
:100D1000B5028093B40281EC90E09093B702809387
:100D2000B60282EC90E09093B9028093B80286EC10
:100D300090E09093BB028093BA021092BD02109291
:100D4000BE021092BF021092C0020895CF92DF92AD
:100D5000EF92FF920F931F93CF93DF936C017A0171
:100D6000EB01E60EF71E00E010E0CE15DF0561F0A6
:100D70006991D601ED91FC910190F081E02DC601C1
:100D80000995080F191FF1CFC801DF91CF911F916D
:100D90000F91FF90EF90DF90CF900895611571054E
:100DA00081F0DB010D900020E9F7AD0141505109C0
:100DB000461B570BDC01ED91FC910280F381E02D85
:100DC000099480E090E00895EF92FF920F931F93B3
:100DD000CF93DF938C01FB01C0E0D0E064917F01F1
:100DE0008FEFE81AF80A662361F0D801ED91FC91C3
:100DF0000190F081E02DC8010995C80FD91FF701B6
:100E0000EDCFCE01DF91CF911F910F91FF90EF9029
:100E100008950C94CE06DC01ED91FC910190F081D7
:100E2000E02D09940F931F93CF93DF93EC016DE0B6
:100E30000E940B078C016AE0CE010E940B07800F15
:100E4000911FDF91CF911F910F9108950F931F93E1
:100E5000CF93DF93EC010E94E4068C01CE010E9447
:100E60001207800F911FDF91CF911F910F9108956D
:100E70000F931F93CF93DF93EC010E94CE068C015A
:100E8000CE010E941207800F911FDF91CF911F9119
:100E90000F9108958F929F92AF92BF92CF92DF925F
:100EA000EF92FF920F931F93CF93DF93CDB7DEB7EF
:100EB000A1970FB6F894DEBF0FBECDBF7C01C42E44
:100EC000E52FCB01D22E19A221E02D1510F02AE03A
:100ED000D22E8E010F5D1F4F8D2C912CA12CB12C89
:100EE0006C2D7E2FA50194010E9417118C2DD29E8E
:100EF00080191124015011098A3014F4805D01C059
:100F0000895CF8018083211531054105510521F0E7
:100F1000C22EE32FCA01E4CFB801C7010E94CE065A
:100F2000A1960FB6F894DEBF0FBECDBFDF91CF9173
:100F30001F910F91FF90EF90DF90CF90BF90AF90F7
:100F40009F908F900895CF92DF92EF92FF920F9330
:100F50001F93CF93DF93EC016A017B0121153105CB
:100F600079F4E881F9810190F081E02D642FDF911F
:100F7000CF911F910F91FF90EF90DF90CF90099448
:100F80002A303105E9F477FF1AC06DE20E940B07A1
:100F90008C0144275527BA014C195D096E097F0958
:100FA0002AE0CE010E944A07800F911FDF91CF9166
:100FB0001F910F91FF90EF90DF90CF9008952AE05E
:100FC000B701A601CE01DF91CF911F910F91FF9044
:100FD000EF90DF90CF900C944A079A01AB016627FF
:100FE00057FD6095762F0C94A3072115310541F428
:100FF000DC01ED91FC910190F081E02D642F0994CA
:101000000C944A079A01462F50E060E070E00C947F
:10101000F5070F931F93CF93DF93EC019A01462FAF
:1010200050E060E070E00E94F5078C01CE010E9464
:101030001207800F911FDF91CF911F910F9108959B
:101040000F931F93CF93DF93EC019A01AB0160E004
:1010500070E00E94F5078C01CE010E941207800FFC
:10106000911FDF91CF911F910F91089580914703B8
:10107000909148032091450330914603821B930BC6
:101080008F739927089520914703309148038091E9
:1010900045039091460328173907E9F0E09145038D
:1010A000F0914603E75BFC4F80812091450330912E
:1010B00046032F5F3F4F3093460320934503209113
:1010C0004503309146032F73332730934603209313
:1010D000450390E008958FEF9FEF08952091470317
:1010E00030914803809145039091460328173907B2
:1010F00049F0E0914503F0914603E75BFC4F8081A6
:1011000090E008958FEF9FEF0895089520E030E07C
:1011100050E02417350704F5809147039091480368
:1011200001968F739927E0914503F09146038E173E
:101130009F0779F0E0914703F0914803DB01A20F8C
:10114000B31FAC91E75BFC4FA0839093480380935F
:1011500047032F5F3F4FDDCF08950F931F93CF932A
:10116000DF93FC01522F1382128208EE13E020E07D
:1011700030E0048315832683378383E692E09183EE
:10118000808381E0808B60934303409342035093BC
:1011900044031786168615861486DF01559688E067
:1011A000ED0119928A95E9F71092460310924503D2
:1011B000109248031092470386E8858FDF91CF9104
:1011C0001F910F910895FC01758764870895FC01B4
:1011D000778766870895CF93DF93EC016AE873E021
:1011E0008CEA93E00E94720E882309F4E2C04091D9
:1011F0008C0350E0FA01E158F109ED30F10508F0F7
:10120000D8C0EC5CFF4F0C94391180918F03809310
:10121000B30380918D03823019F08330A1F0C9C0EF
:101220008CEA93E00E94EB0A029709F4C2C0888915
:10123000882309F4BEC060E971E084EA92E0DF919E
:10124000CF910C9426078D89882309F464C0AE01E0
:101250004B5E5F4FFA0101900020E9F79F0121509A
:101260003109241B350B61E08CEA93E00E94D20D1A
:1012700052C080918E038823C9F08889811101C0F2
:10128000FFCF63E871E084EA92E00E94E40640E167
:1012900050E060918D0384EA92E00E9409086BE4BB
:1012A00071E084EA92E00E942607EACF80918D03E4
:1012B000893009F07EC029E04FE853E064E08CEA11
:1012C00093E0DF91CF910C94D20D8091B303809382
:1012D000B6030E94CA0D85E88D8FEC85FD85309799
:1012E00009F0099563E08CEA93E00E94710D882370
:1012F00009F45FC08091890381115BC00E946A0E6E
:1013000081E08093890355C086E88D8FEC85FD854B
:10131000309709F009956B897C8989899A890E949F
:101320000D0E81E88D8FEC85FD85309709F441C065
:10133000DF91CF91099440918B0342506EE873E0A6
:10134000CE010E948608EE85FF85309791F160916D
:101350008B0362508EE893E0DF91CF9109948091E6
:101360008D039091B603890F22C088898823E1F00C
:101370006FE271E084EA92E00E94E4064AE050E005
:1013800060918D0384EA92E00E94020869E171E0B5
:1013900084EA92E00E94E40640E150E060918E030E
:1013A00084EA92E00E9409088091B6038F5F8093DF
:1013B000B603DF91CF910895CF92DF92EF92FF9223
:1013C0000F931F93CF93DF937C018B01D42E6CEB93
:1013D00071E084EA92E00E94E406C02EC02FD12F73
:1013E0008C2F8C198D1570F468EB71E084EA92E013
:1013F0000E94E406699140E150E084EA92E00E9494
:101400000208EECF84EA92E00E941207C0E0DD20DD
:1014100021F163E08CEA93E00E94710D811104C018
:10142000C7010E94EB08F3CFDD2D84E18D1508F490
:10143000D4E14D2FB8016C0F711D83E00E94290E7D
:101440008091B60381508093B60363E270E080E040
:1014500090E00E947C0FDD1A59F48C2F90E0DF9110
:10146000CF911F910F91FF90EF90DF90CF90089553
:10147000CD0FCDCF0F931F93CF93DF931F92CDB797
:10148000DEB78C01698363EA71E084EA92E00E942E
:10149000E40640E150E0698184EA92E00E94090894
:1014A00063E08CEA93E00E94710D8823A9F041E08B
:1014B000BE016F5F7F4F83E00E94290E8091B603CB
:1014C00081508093B60363E270E080E090E00E9478
:1014D0007C0F81E090E005C0C8010E94EB0880E02D
:1014E00090E00F90DF91CF911F910F910895FC0133
:1014F000728B618B548B438B85E091E09093AD03AD
:101500008093AC0384E08093AE0382ED91E09093EE
:10151000B0038093AF0385E18093B1038CEA93E03D
:101520000E94820D81E00895CF92DF92EF92FF92A8
:101530000F931F93CF93DF938C01C62E81E2489FB8
:1015400070011124C0E0D0E0D12CDC1411F1CE01E7
:101550008E0D9F1DF80163817481680F791FFB0157
:101560003196449150E04E5F5F4F8EEC93E00E94C5
:101570003F118EEC93E00E942A0CA196811107C0C6
:1015800067E874E084EA92E00E94260719C0D394C9
:10159000DCCFC0E06FEE73E0C8010E94720E8823BA
:1015A000C9F3CF5F8091F103843851F48091F30344
:1015B0009FEF980F923010F4CC12ECCF90E002C065
:1015C00081E890E0DF91CF911F910F91FF90EF9014
:1015D000DF90CF9008950F931F93CF93DF93EC018B
:1015E0006D81693028F000E010E088E890E002C0EA
:1015F00040E015C06D81262F269526952695121759
:1016000040F4402F68E0CE010E94940A1F5F085FFB
:10161000F1CF677059F0412F440F440F440FCE01B2
:10162000DF91CF911F910F910C94940ADF91CF918C
:101630001F910F91089510922506FC01E85FFE4F5F
:10164000108231961082EDE1F5E0DF0111971C92D6
:101650001082B19686E0E532F807B9F708950F9346
:101660001F93CF93DF93EC0109814AE050E0602F94
:1016700084EA92E00E9402086FE672E084EA92E057
:101680000E94090710E0FE01E10FF11D40E150E06A
:10169000618184EA92E00E94020867E974E084EACA
:1016A00092E00E94E4061F5F011768F766E974E0A4
:1016B00084EA92E0DF91CF911F910F910C9426075D
:1016C00090914203923019F0933019F01BC020E042
:1016D00001C021E03DB3882351F081E090E0022E6B
:1016E00001C0880F0A94EAF7382B3DBB089581E0CA
:1016F00090E0022E01C0880F0A94EAF780958323B8
:101700008DBB0895FFCF0F931F93CF93DF93EC0111
:10171000F89400911A05109119057894E091190533
:1017200080911A05E81761F191E29E9FF001112462
:10173000EF5EFB4FDE0101900D929A95E1F720914B
:10174000190530E02F5F3F4F27703327209319058D
:1017500080912506882349F062E772E084EA92E0EE
:101760000E940907CE010E942F0B802F90E0019666
:1017700087709927181306C081E00E94600B02C091
:1017800080E001C081E0DF91CF911F910F9108951A
:10179000109227060E94BD0E8BE195E00E941B0B64
:1017A00081E194E00E941B0B61E0809144030E9460
:1017B000081062E0809142030E94081061E080916D
:1017C00043030E94081061E0809144030E9441108D
:1017D00064E670E080E090E00E947C0F60E0809121
:1017E00044030E94411061E0809144030E94411033
:1017F00060E08DE00E94411060E08BE00E944110AB
:1018000061E0809143030E94411060E08DE00E94FE
:1018100041108FEF8093410380914203823019F48D
:101820001092410305C0833019F481E08093410395
:101830006EE170E080E090E00E947C0F80914103B7
:101840000E94F30E40E050E06DE27DE080914103A4
:101850000C9477100F931F93CF93DF938C01FC01AF
:1018600041814032C0F52091240630E0E901219603
:10187000C770DD27809123068C17C1F051E2529F7B
:10188000C001539F900D1124FC01E55EFA4F1082B8
:1018900050E04F5F5F4FB8016F5F7F4F845E9A4F9C
:1018A0000E944811C0932406C1E001C0C0E08091AD
:1018B0002506882349F065E772E084EA92E00E94F9
:1018C0000907C8010E942F0B60E0809143030E942A
:1018D00041108C2F01C080E0DF91CF911F910F91BB
:1018E0000895CF92DF92EF92FF920F931F93CF93C1
:1018F000DF93CDB7DEB7A2970FB6F894DEBF0FBE69
:10190000CDBF80918906882399F09FB7F894809184
:101910008906813059F48DB3809387062DB3809169
:101920008806809582238DBB9FBF02C09093870657
:1019300081E78CBD81E08DBD60E0809143030E9412
:1019400041108091230690912406891709F472C0F2
:1019500090E021E2289FF001299FF00D1124E55E1F
:10196000FA4FDE01119601900D922A95E1F701964A
:1019700087709927809323061A81812F0E941A036A
:10198000809326068B810E941A03809327061123D9
:1019900049F0412F50E0282F30E02417350714F488
:1019A0008FEF810F982F803208F09FE17E0184E055
:1019B000E80EF11C88E2C82E86E0D82E8601802F22
:1019C0008C19891758F4F70181917F019AA30E941D
:1019D0001A03F80181938F019AA1F1CF61E0809100
:1019E00043030E94411080918906882361F09FB7CC
:1019F000F8942091890680918706213019F48DBBD7
:101A00009FBF01C08FBF83B7816083BF40E050E0BC
:101A10006DE27DE0809141030E9477109091230652
:101A200080912406981741F060E0809143030E9462
:101A3000411002C01A82A0CF86E296E0A2960FB6AD
:101A4000F894DEBF0FBECDBFDF91CF911F910F91F4
:101A5000FF90EF90DF90CF900895CF93DF9383B7FF
:101A60008E7F83BF809141030E9497100E94710C6A
:101A7000FC014181442391F160911A0570E0EB0172
:101A80002196C770DD27209119052C1731F151E2FD
:101A9000569F9001579F300D1124F901EF5EFB4FC7
:101AA000108250E04F5F5F4FBC016F5F7F4FC901F5
:101AB0008E5E9B4F0E944811C0931A05F894809146
:101AC0001A058F5F8770909119057894891306C065
:101AD00080E0DF91CF910C94600BFFCFDF91CF912D
:101AE0000895262F269526952695820F911DFC0197
:101AF000818990E0677002C0959587956A95E2F7B5
:101B000081700895CF93DF93FC01A8E4B6E080E0F4
:101B100090E0EF01C80FD91F198A198E1D92019606
:101B200088309105B1F71092550610925406109224
:101B30005306109252068FEF80935D0680935C06E9
:101B400080935B0610925906109258061092570621
:101B500010925606109251061092500610924706A7
:101B600010925F0610925E068081918190938606A6
:101B700080938506828180938406838194819093EB
:101B8000830680938206858180938106DF91CF91C1
:101B90000C94C80B81E696E00E94D51080E696E092
:101BA0000C942A0CCF93DF93CDB7DEB766970FB6B0
:101BB000F894DEBF0FBECDBFCA01E0918506F0915B
:101BC000860633E0639FE00DF11D112433973081C9
:101BD0003130C9F42531B8F46983422F50E0BC019B
:101BE000CE0102962E8B0E9448112E89422FBE01F3
:101BF0006F5F7F4F81E696E00E94DB1080E696E003
:101C00000E942A0C01C080E066960FB6F894DEBFF1
:101C10000FBECDBFDF91CF910895CF93DF9300D05A
:101C200000D0CDB7DEB79A8389837C836B83BE01F6
:101C30006F5F7F4F81E696E00E94EC1080E696E0B1
:101C40000E942A0C0F900F900F900F90DF91CF9170
:101C500008951F93CF93DF93CDB7DEB765970FB687
:101C6000F894DEBF0FBECDBF142FE0918506F09132
:101C7000860693E0899FE00DF11D112433972181A1
:101C800032812230310519F024303105C1F415318B
:101C9000B0F48983412F50E0CE0102960E94481192
:101CA000412FBE016F5F7F4F81E696E00E940011D9
:101CB00010925A0680E696E00E942A0C01C080E04D
:101CC00065960FB6F894DEBF0FBECDBFDF91CF9102
:101CD0001F91089581E696E00E94111180E696E03A
:101CE0000C942A0C0F931F93CF93DF93EC018B017D
:101CF000CB010E94830BF8019281983839F0993812
:101D000051F19638A9F520E030E017C020E030E02E
:101D10000F5F1F4FD801A20FB31F12969C9112970D
:101D2000FE01E20FF31F918B1A969C91918F2F5F0A
:101D30003F4F2830310571F71BC0FE01E20FF31F42
:101D4000118A118E2F5F3F4F28303105B1F719A24C
:101D50009F819A870DC0F801238134813C872B87AE
:101D6000258136813E872D8727813085388B2F87C7
:101D7000DF91CF911F910F910895CF93CFB7F89432
:101D800080918A06811127C0ECECF4E08491E8EBA5
:101D9000F4E09491E82FF0E0EE0FFF1FE052FB4FCC
:101DA000A591B4918C91892321F461E08AE00E948D
:101DB000411061E08AE00E9408108CB580618CBD02
:101DC0008CB580648CBD61E08DE00E94081061E0FC
:101DD0008BE00E94081080918A068F5F80938A06AC
:101DE000CFBFCF9108952FB7F894882339F0813071
:101DF00039F082E08093890690E003C091E001C051
:101E000092E080918806892B8093880680918906CC
:101E1000811103C081E0809389062FBF08951F922E
:101E20000F920FB60F9211242F933F938F939F938E
:101E3000AF93BF9380918C0690918D06A0918E06F2
:101E4000B0918F0630918B0623E0230F2D3720F4BD
:101E50000196A11DB11D05C026E8230F0296A11D04
:101E6000B11D20938B0680938C0690938D06A093D2
:101E70008E06B0938F068091900690919106A09166
:101E80009206B09193060196A11DB11D8093900614
:101E900090939106A0939206B0939306BF91AF9151
:101EA0009F918F913F912F910F900FBE0F901F9098
:101EB00018953FB7F8948091900690919106A09163
:101EC0009206B091930626B5A89B05C02F3F19F046
:101ED0000196A11DB11D3FBF6627782F892F9A2F2C
:101EE000620F711D811D911D42E0660F771F881FD3
:101EF000991F4A95D1F70895CF92DF92EF92FF9202
:101F0000CF93DF936B017C010E94590FEB01C11449
:101F1000D104E104F10489F00E94D4100E94590F09
:101F20006C1B7D0B683E734090F381E0C81AD108AA
:101F3000E108F108C851DC4FEACFDF91CF91FF9063
:101F4000EF90DF90CF900895789484B5826084BD3F
:101F500084B5816084BD85B5826085BD85B58160AD
:101F600085BDEEE6F0E0808181608083E1E8F0E00D
:101F70001082808182608083808181608083E0E83C
:101F8000F0E0808181608083E1EBF0E0808184601B
:101F90008083E0EBF0E0808181608083EAE7F0E01D
:101FA0008081846080838081826080838081816081
:101FB00080838081806880831092C100089583307F
:101FC00081F028F4813099F08230A1F008958730B3
:101FD000A9F08830B9F08430D1F4809180008F7DF1
:101FE00003C0809180008F7780938000089584B52E
:101FF0008F7702C084B58F7D84BD08958091B00035
:102000008F7703C08091B0008F7D8093B0000895DA
:10201000CF93DF9390E0FC01E255FB4F2491FC014C
:10202000EE53FB4F8491882349F190E0880F991F6C
:10203000FC01E052FB4FA591B4918A529B4FFC01E9
:10204000C591D4919FB7611108C0F8948C912095E7
:1020500082238C93888182230AC0623051F4F894E1
:102060008C91322F309583238C938881822B8883A7
:1020700004C0F8948C91822B8C939FBFDF91CF91F9
:1020800008950F931F93CF93DF931F92CDB7DEB7C1
:10209000282F30E0F901E656FB4F8491F901E25513
:1020A000FB4F1491F901EE53FB4F04910023C9F04B
:1020B000882321F069830E94DF0F6981E02FF0E01F
:1020C000EE0FFF1FEA52FB4FA591B4919FB7F89412
:1020D0008C91611103C01095812301C0812B8C93D9
:1020E0009FBF0F90DF91CF911F910F910895823084
:1020F000E8F4E82FF0E0EE0FFF1FEC56F94F718384
:102100006083813041F0809169008C7F842B8093C3
:102110006900E89A089580916900440F551F440FA3
:10212000551F837F842B80936900E99A089582303C
:1021300068F4813011F0E89801C0E998E82FF0E0E8
:10214000EE0FFF1FEC56F94F1182108208951F9277
:102150000F920FB60F9211242F933F934F935F93DB
:102160006F937F938F939F93AF93BF93EF93FF935F
:102170008091940690919506892B29F0E091940620
:10218000F09195060995FF91EF91BF91AF919F91C5
:102190008F917F916F915F914F913F912F910F9010
:1021A0000FBE0F901F901895089521E0FC01208329
:1021B00029E02183089522E0240FDC012C932DE0F7
:1021C00011962C931197FB01219112962C9350E0BC
:1021D000BF0103960C944811FC01DB0185E080836C
:1021E0008FE0818311968C91119783838C918283E8
:1021F00013968C911397858312968C9184830895FE
:1022000022E0240FDC012C9325E111962C931197E9
:10221000FB01219112962C9350E0BF0103960C9480
:10222000481121E0FC01208323E121830895A1E2EC
:102230001A2EAA1BBB1BFD010DC0AA1FBB1FEE1F40
:10224000FF1FA217B307E407F50720F0A21BB30B8B
:10225000E40BF50B661F771F881F991F1A9469F707
:1022600060957095809590959B01AC01BD01CF0163
:102270000895EE0FFF1F0590F491E02D0994FB01E6
:10228000DC0102C005900D9241505040D8F70895EE
:10229000FB01DC0102C001900D9241505040D8F783
:0622A0000895F894FFCF41
:1022A600676F6F660001800001080001020001806F
:1022B600002030780073706920686173206265655C
:1022C6006E20736574757020666F7220616437378F
:1022D60031350074696D657220636F6E66696720BB
:1022E600737461727465640074696D657220636FDE
:1022F6006E66696720636F6D706C657465640069EE
:102306006E746572727570747320636F6E6669673A
:10231600207374617274656400696E746572727597
:1023260070747320636F6E66696720636F6D706C7F
:102336006574656400737069206861732062656501
:102346006E20736574757020666F72206E726638C3
:102356003030310061646320636F6E666967207395
:10236600746172746564007761732073656E74209E
:10237600746F206164373731350077617320726579
:1023860061642066726F6D20616437373135006194
:10239600646320636F6E66696720636F6D706C653A
:1023A600746564006164632072656164207374619E
:1023B6007274656400696E746572727570742070EB
:1023C600617373656400696E7465727275707420EA
:1023D600636F6D706C6574656400462041204C2007
:1023E600532045202041204C20412052204D000002
:1023F6000000003A05A606BC04D504C7041805006B
:102406000000003A0AA606360843086E088508202A
:082416003A00204500430000DC
:00000001FF
