:100000000C94BF020C9421100C94470C0C94E70242
:100010000C94E7020C94E7020C94E7020C94E702BC
:100020000C94E7020C945F0B0C94E7020C94E7022B
:100030000C94E7020C94E7020C94E7020C94E7029C
:100040000C94A0100C94E7020C94D20D0C94040EA6
:100050000C94E7020C94E7020C94E7020C94E7027C
:100060000C94E7020C94E702B8038C048C04EC03B4
:10007000180437048C0425048C0462048C044E0498
:100080006804202050697065204572726F722043A9
:100090006F64653A203078004143492045767420EA
:1000A00050697065204572726F723A2050697065B0
:1000B00020233A0045767420436D64207265737086
:1000C0006F6E653A204572726F722E2041726475B0
:1000D000696E6F20697320696E20616E2077686990
:1000E0006C652831293B206C6F6F700041434920BB
:1000F000436F6D6D616E6420004572726F7220698E
:100100006E20414349205365747570000957726928
:1001100074696E67206F6E6520627974652030782F
:1001200000203078000957726974696E67206F7516
:100130007420746F2042544C453A002030780009F6
:1001400057726974696E67206F757420746F2042EE
:10015000544C453A00000706000003024207000025
:10016000000000000000000000000000000000008F
:10017000000000000000001F06100000000000004A
:1001800000050005010100000600009000000000CD
:1001900000000000000000001F06101C010200000B
:1001A000000000000000000000000000000000143B
:1001B00000000014039001FF001F061038FFFF022B
:1001C00058000500000000000000000000001000C2
:1001D00000000000000000000000050610540000B0
:1001E000000000000000000000000000000000000F
:1001F00000000000000000000000001F06200004B6
:100200000402020001280001001804040505000290
:100210002803010E0300002A041407001F06201CF7
:100220000400032A00015541525469637304040514
:10023000050004280301020500012A06001F06200C
:100240003804030200052A0101000004040505002A
:1002500006280301020700042A06040908001F06F5
:10026000205400072A04010600120000000A0004BE
:100270000402020008280001011804041010001FE5
:1002800006207000092800019ECADC240EE5A9E0C2
:1002900093F3A3B50100406E04041313000A280071
:1002A0001F06208C0301040B009ECADC240EE5A966
:1002B000E093F3A3B50200406E44101400000B005D
:1002C000001F0620A802020000000000000000003D
:1002D00000000000000000000000000404131300F0
:1002E0000C001F0620C4280301100D009ECADC2448
:1002F0000EE5A9E093F3A3B50300406E14001400CB
:10030000000D001F0620E0000302000000000000B6
:100310000000000000000000000000000000461483
:10032000030200001F0620FC0E2902010000040445
:100330001313000F2803011010009ECADC240EE5E1
:10034000A9E093F3001F062118A3B50400406E1422
:100350000014000010000402000000000000000073
:100360000000000000001F06213400000000000013
:1003700000461403020011290201000004040202D5
:1003800000122800010A001F062150180404050568
:100390000013280301021400272A04040901001491
:1003A0002A27010A000000000906216C0000000055
:1003B000000000000000000000000000000000003D
:1003C0000000000000000000001F0640002A00019D
:1003D00000800400030000000202000804000B007B
:1003E00000000302000204000D001906401C000E6C
:1003F000000402000204001000112A2701008004FA
:100400000014000000000000000000130650009ED1
:10041000CADC240EE5A9E093F3A3B50000406E000A
:100420000000000000000000000000001206600054
:1004300000000000000000000000000000000000BC
:10044000000000000000000000000000000606F0B0
:100450000003185D00000000000000000000000024
:1004600000000000000000000000000000436D6478
:100470002051756575652046756C6C00002C200058
:1004800053797374656D20736574757020636F6D37
:10049000706C6574650056656C6F6D657472696328
:1004A0007320656D6264782072756E6E696E672E5A
:1004B0002E2E005374617274696E672073797374A1
:1004C000656D2073657475702E2E2E00205D0020E2
:1004D0005B002062797465733A2000526563656938
:1004E0007665642000446973636F6E6E656374653E
:1004F00064206F72206164766572746973696E67D7
:100500002074696D6564206F757400436F6E6E654D
:100510006374656421004164766572746973696E01
:100520006720737461727465640000000008000243
:1005300001000003040700000000000000000102A9
:100540000408102040800102040810200102040861
:10055000102004040404040404040202020202023F
:1005600003030303030300000000250028002B0001
:1005700000000000240027002A00860C340E1124FD
:100580001FBECFEFD8E0DEBFCDBF12E0A0E0B1E0EC
:10059000EEEDF4E202C005900D92A433B107D9F755
:1005A00026E0A4E3B2E001C01D92AF35B207E1F747
:1005B00015E0CEE7D5E004C02297FE010E942D127F
:1005C000CA37D107C9F70E94380C0C946D120C94ED
:1005D000000080913A0290913B02209138023091C4
:1005E0003902821B930B8F739927089520913A0249
:1005F00030913B02809138029091390228173907D7
:10060000E9F0E0913802F0913902E45CFD4F80811D
:1006100020913802309139022F5F3F4F30933902D9
:100620002093380220913802309139022F733327FA
:10063000309339022093380290E008958FEF9FEFB6
:10064000089520913A0230913B02809138029091B6
:1006500039022817390749F0E0913802F091390240
:10066000E45CFD4F808190E008958FEF9FEF089547
:10067000089520E030E050E02417350704F580911C
:100680003A0290913B0201968F739927E0913802CC
:10069000F09139028E179F0779F0E0913A02F091BC
:1006A0003B02DB01A20FB31FAC91E45CFD4FA083C2
:1006B00090933B0280933A022F5F3F4FDDCF089526
:1006C0000F931F93CF93DF93FC01522F138212825B
:1006D00008EE13E020E030E004831583268337839F
:1006E00088E191E09183808381E0808B6093360282
:1006F0004093350250933702178616861586148666
:10070000DF01559688E0ED0119928A95E9F710927C
:1007100039021092380210923B0210923A0286E897
:10072000858FDF91CF911F910F910895FC017587FF
:1007300064870895FC01778766870895CF93DF93D8
:10074000EC016DE772E08FE992E00E94CC0988230A
:1007500009F4E2C040917F0250E0FA01E158F1094A
:10076000ED30F10508F0D8C0EC5CFF4F0C942B1273
:10077000809182028093A60280918002823019F0DB
:100780008330A1F0C9C08FE992E00E94FC05029776
:1007900009F4C2C08889882309F4BEC069EF70E0FB
:1007A00081EB95E0DF91CF910C94F70E8D89882332
:1007B00009F464C0AE014B5E5F4FFA010190002066
:1007C000E9F79F0121503109241B350B61E08FE9C6
:1007D00092E00E942C0952C0809181028823C9F0C6
:1007E0008889811101C0FFCF6CEE70E081EB95E04C
:1007F0000E94B50E40E150E06091800281EB95E0EF
:100800000E94DA0F64EB70E081EB95E00E94F70E36
:10081000EACF80918002893009F07EC029E042E869
:1008200052E065E08FE992E0DF91CF910C942C09C2
:100830008091A6028093A9020E94240985E88D8FE9
:10084000EC85FD85309709F0099563E08FE992E02A
:100850000E94CB08882309F45FC080917C0281113B
:100860005BC00E94C40981E080937C0255C086E889
:100870008D8FEC85FD85309709F009956B897C8912
:1008800089899A890E94670981E88D8FEC85FD85A9
:10089000309709F441C0DF91CF91099440917E02D5
:1008A000425061E872E0CE010E943903EE85FF8577
:1008B000309791F160917E02625081E892E0DF9181
:1008C000CF910994809180029091A902890F22C052
:1008D00088898823E1F068E970E081EB95E00E9467
:1008E000B50E4AE050E06091800281EB95E00E94F5
:1008F000D30F62E870E081EB95E00E94B50E40E115
:1009000050E06091810281EB95E00E94DA0F8091C6
:10091000A9028F5F8093A902DF91CF910895CF92B2
:10092000DF92EF92FF920F931F93CF93DF937C019F
:100930008B01D42E6FE371E081EB95E00E94B50E40
:10094000C02EC02FD12F8C2F8C198D1570F46BE316
:1009500071E081EB95E00E94B50E699140E150E0B5
:1009600081EB95E00E94D30FEECF81EB95E00E94E2
:10097000E30EC0E0DD2021F163E08FE992E00E9408
:10098000CB08811104C0C7010E949E03F3CFDD2D67
:1009900084E18D1508F4D4E14D2FB8016C0F711D61
:1009A00083E00E9483098091A90281508093A9026B
:1009B00063E270E080E090E00E940D11DD1A59F4CE
:1009C0008C2F90E0DF91CF911F910F91FF90EF90CE
:1009D000DF90CF900895CD0FCDCFCF92DF92EF92E1
:1009E000FF920F931F93CF93DF937C018B01D42E43
:1009F00065E271E081EB95E00E94B50EC02EC02F3C
:100A0000D12F8C2F8C198D1570F461E271E081EB80
:100A100095E00E94B50E699140E150E081EB95E0D0
:100A20000E94D30FEECF81EB95E00E94E30EC0E071
:100A3000DD2021F164E08FE992E00E94CB08811172
:100A400004C0C7010E949E03F3CFDD2D84E18D1504
:100A500008F4D4E14D2FB8016C0F711D84E00E94A1
:100A600083098091A90281508093A90263E270E01A
:100A700080E090E00E940D11DD1A59F48C2F90E077
:100A8000DF91CF911F910F91FF90EF90DF90CF906A
:100A90000895CD0FCDCF0F931F93CF93DF931F9268
:100AA000CDB7DEB78C0169836CE071E081EB95E036
:100AB0000E94B50E40E150E0698181EB95E00E9413
:100AC000DA0F64E08FE992E00E94CB088823A9F056
:100AD00041E0BE016F5F7F4F84E00E9483098091F7
:100AE000A90281508093A90263E270E080E090E067
:100AF0000E940D1181E090E005C0C8010E949E0394
:100B000080E090E00F90DF91CF911F910F910895B9
:100B1000FC01728B618B548B438B80E091E090934E
:100B2000A00280939F0285E08093A10285E591E079
:100B30009093A3028093A20288E18093A4028FE99C
:100B400092E00E94DC0881E00895CF92DF92EF925C
:100B5000FF920F931F93CF93DF938C01C62E81E2F8
:100B6000489F70011124C0E0D0E0D12CDC1411F1B9
:100B7000CE018E0D9F1DF80163817481680F791F6E
:100B8000FB013196449150E04E5F5F4F81EC92E063
:100B90000E94311281EC92E00E948407A19681119B
:100BA00007C06DE674E081EB95E00E94F70E19C076
:100BB000D394DCCFC0E062EE72E0C8010E94CC09A1
:100BC0008823C9F3CF5F8091E402843851F4809187
:100BD000E6029FEF980F923010F4CC12ECCF90E029
:100BE00002C081E890E0DF91CF911F910F91FF90BB
:100BF000EF90DF90CF9008950F931F93CF93DF93E3
:100C0000EC016D81693028F000E010E088E890E0A8
:100C100002C040E015C06D81262F269526952695A9
:100C2000121740F4402F68E0CE010E94A5051F5F17
:100C3000085FF1CF677059F0412F440F440F440F04
:100C4000CE01DF91CF911F910F910C94A505DF91FB
:100C5000CF911F910F91089521E0FC01208329E09D
:100C60002183089522E0240FDC012C932DE01196BE
:100C70002C931197FB01219112962C9350E0BF0108
:100C800003960C943A12FC01DB0185E080838FE02F
:100C9000818311968C91119783838C918283139613
:100CA0008C911397858312968C918483089522E00A
:100CB000240FDC012C9325E111962C931197FB0155
:100CC000219112962C9350E0BF0103960C943A1296
:100CD00021E0FC01208323E121830895109218056F
:100CE000FC01E85FFE4F108231961082E0E1F4E0F3
:100CF000DF0111971C921082B19685E0E831F80768
:100D0000B9F708950F931F93CF93DF93EC010981F7
:100D10004AE050E0602F81EB95E00E94D30F64E23F
:100D200071E081EB95E00E94DA0E10E0FE01E10F28
:100D3000F11D40E150E0618181EB95E00E94D30F0D
:100D40006DE774E081EB95E00E94B50E1F5F01171F
:100D500068F76CE774E081EB95E0DF91CF911F912C
:100D60000F910C94F70E8EBD00000DB407FEFDCF61
:100D70008EB5089590913502923019F0933019F0A4
:100D80001BC020E001C021E03DB3882351F081E089
:100D900090E0022E01C0880F0A94EAF7382B3DBB81
:100DA000089581E090E0022E01C0880F0A94EAF7CE
:100DB000809583238DBB0895FFCF0F931F93CF930F
:100DC000DF93EC01F89400910D0410910C047894D9
:100DD000E0910C0480910D04E81761F191E29E9F6F
:100DE000F0011124EC5FFC4FDE0101900D929A9509
:100DF000E1F720910C0430E02F5F3F4F277033273D
:100E000020930C0480911805882349F067E271E073
:100E100081EB95E00E94DA0ECE010E948206802FBF
:100E200090E0019687709927181306C081E00E9410
:100E3000BA0602C080E001C081E0DF91CF911F912E
:100E40000F91089510921A050E944E108EE094E0C2
:100E50000E946E0684E093E00E946E0661E080913D
:100E600037020E94991162E0809135020E94991127
:100E700061E0809136020E94991161E08091370211
:100E80000E94D21164E670E080E090E00E940D11B3
:100E900060E0809137020E94D21161E080913702B8
:100EA0000E94D21160E08DE00E94D21160E08BE0E0
:100EB0000E94D21161E0809136020E94D21160E05E
:100EC0008DE00E94D2118FEF809334028091350221
:100ED000823019F41092340205C0833019F481E095
:100EE000809334026EE170E080E090E00E940D118A
:100EF000809134020E94841040E050E067E878E07E
:100F0000809134020C94F10F0F931F93CF93DF93D2
:100F10008C01FC0141814032C0F52091170530E081
:100F2000E9012196C770DD27809116058C17C1F065
:100F300051E2529FC001539F900D1124FC01E25FCA
:100F4000FB4F108250E04F5F5F4FB8016F5F7F4FE4
:100F5000815F9B4F0E943A12C0931705C1E001C008
:100F6000C0E080911805882349F06AE271E081EBC6
:100F700095E00E94DA0EC8010E94820660E080912E
:100F800036020E94D2118C2F01C080E0DF91CF91F8
:100F90001F910F910895CF92DF92EF92FF920F93DE
:100FA0001F93CF93DF93CDB7DEB7A2970FB6F89418
:100FB000DEBF0FBECDBF80915406882399F09FB746
:100FC000F89480915406813059F48DB38093520681
:100FD0002DB380915306809582238DBB9FBF02C0A5
:100FE0009093520681E78CBD81E08DBD60E08091D9
:100FF00036020E94D211809116059091170589172B
:1010000009F472C090E021E2289FF001299FF00DC1
:101010001124E25FFB4FDE01119601900D922A959B
:10102000E1F7019687709927809316051A81812F21
:101030000E94B306809319058B810E94B3068093AA
:101040001A05112349F0412F50E0282F30E02417D2
:10105000350714F48FEF810F982F803208F09FE14D
:101060007E0184E0E80EF11C8BE1C82E85E0D82ECD
:101070008601802F8C19891758F4F70181917F011F
:101080009AA30E94B306F80181938F019AA1F1CF30
:1010900061E0809136020E94D2118091540688232B
:1010A00061F09FB7F8942091540680915206213048
:1010B00019F48DBB9FBF01C08FBF83B7816083BF11
:1010C00040E050E067E878E0809134020E94F10F40
:1010D0009091160580911705981741F060E0809176
:1010E00036020E94D21102C01A82A0CF89E195E097
:1010F000A2960FB6F894DEBF0FBECDBFDF91CF91A1
:101100001F910F91FF90EF90DF90CF900895CF93B4
:10111000DF9383B78E7F83BF809134020E941110CA
:101120000E94CB07FC014181442391F160910D04A1
:1011300070E0EB012196C770DD2720910C042C177D
:1011400031F151E2569F9001579F300D1124F90162
:10115000EC5FFC4F108250E04F5F5F4FBC016F5F50
:101160007F4FC9018B5F9C4F0E943A12C0930D04C0
:10117000F89480910D048F5F877090910C0478949F
:10118000891306C080E0DF91CF910C94BA06FFCF9F
:10119000DF91CF910895262F269526952695820FCB
:1011A000911DFC01818990E0677002C0959587953B
:1011B0006A95E2F781700895CF93DF93FC01ABE36A
:1011C000B5E080E090E0EF01C80FD91F198A198EB1
:1011D0001D92019688309105B1F710924805109242
:1011E000470510924605109245058FEF80935005F4
:1011F00080934F0580934E0510924C0510924B053D
:1012000010924A0510924905109244051092430528
:1012100010923A05109252051092510580819181E9
:1012200090937905809378058281809377058381F7
:1012300094819093760580937505858180937405DC
:10124000DF91CF910C94220784E595E00E942C0653
:1012500083E595E00C948407CF93DF93CDB7DEB799
:1012600066970FB6F894DEBF0FBECDBFCA01E091FE
:101270007805F091790533E0639FE00DF11D1124AD
:10128000339730813130C9F42531B8F46983422F66
:1012900050E0BC01CE0102962E8B0E943A122E899C
:1012A000422FBE016F5F7F4F84E595E00E943206BA
:1012B00083E595E00E94840701C080E066960FB642
:1012C000F894DEBF0FBECDBFDF91CF910895CF93CD
:1012D000DF9300D000D0CDB7DEB79A8389837C83BB
:1012E0006B83BE016F5F7F4F84E595E00E944306EC
:1012F00083E595E00E9484070F900F900F900F9068
:10130000DF91CF9108951F93CF93DF93CDB7DEB7D1
:1013100065970FB6F894DEBF0FBECDBF142FE091D6
:101320007805F091790593E0899FE00DF11D112476
:101330003397218132812230310519F02430310573
:10134000C1F41531B0F48983412F50E0CE010296EB
:101350000E943A12412FBE016F5F7F4F84E595E0F6
:101360000E94570610924D0583E595E00E94840780
:1013700001C080E065960FB6F894DEBF0FBECDBF0A
:10138000DF91CF911F91089584E595E00E94680652
:1013900083E595E00C9484070F931F93CF93DF931D
:1013A000EC018B01CB010E94DD06F8019281983897
:1013B00039F0993851F19638A9F520E030E017C09E
:1013C00020E030E00F5F1F4FD801A20FB31F12962D
:1013D0009C911297FE01E20FF31F918B1A969C913C
:1013E000918F2F5F3F4F2830310571F71BC0FE01F1
:1013F000E20FF31F118A118E2F5F3F4F2830310506
:10140000B1F719A29F819A870DC0F8012381348119
:101410003C872B87258136813E872D872781308524
:10142000388B2F87DF91CF911F910F910895DF9215
:10143000EF92FF920F931F93CF93DF93EC01D62E81
:101440006BED74E081EB95E00E94B50E4AE050E050
:101450006D2D81EB95E00E94D30F62ED74E081EB7E
:1014600095E00E94B50E8E01ED2CF12CC8018C1B6D
:101470009D0B8E159F0544F4F80161918F0181EB5E
:1014800095E00E94DC0EF2CF6FEC74E081EB95E00A
:101490000E94B50E8E01C8018C1B9D0B8E159F05F9
:1014A000A4F46CE271E081EB95E00E94DA0EF801A1
:1014B00081918F01682F772767FD709540E150E09B
:1014C00081EB95E00E94BE0FE6CF6CEC74E081EBFF
:1014D00095E00E94F70E4D2DBE018AE795E0DF9161
:1014E000CF911F910F91FF90EF90DF900C948F049C
:1014F000853839F0863841F0813861F466E175E06D
:1015000005C06BE075E002C065EE74E081EB95E02C
:101510000C94F70E0895089520915406222399F013
:101520003FB7F89420915406213059F42DB32093FD
:1015300052064DB320915306209524232DBB3FBF67
:1015400002C0309352068CBD9DBD08958091540613
:10155000882361F09FB7F894209154068091520639
:10156000213019F48DBB9FBF08958FBF089560E3AC
:1015700071E081EB95E00E94090FF8940E944E10F3
:1015800061E086E00E94D2112FEF81EE94E02150BD
:1015900080409040E1F700C0000060E086E00E94DB
:1015A000D2112FEF81EE94E0215080409040E1F77E
:1015B00000C0000061E086E00E94D2118DE590E05D
:1015C0000E948C0A60E08AE00E94D21180E10E94B1
:1015D000B30688E40E94B30661E08AE00E94D2115B
:1015E0000E94A60A789463E471E081EB95E00C9484
:1015F000090F68E571E081EB95E00E94090F1092F8
:10160000B000E1EBF0E01082A0E7B0E08C918160E7
:101610008C938081846080836DE671E081EB95E03E
:101620000C94090F64E871E081EB95E00E94090FCA
:101630005B9AE9E6F0E080818860808380818B7F1F
:1016400080836EE971E081EB95E00C94090F6AEB01
:1016500071E081EB95E00E94090F61E086E00E9455
:10166000991161E08AE00E949911219A61E08AE073
:101670000E94D2116DEC71E081EB95E00C94090FA2
:10168000CF93DF93EC01BC0181EB95E00E94090F41
:101690004AE06FE071E08AE795E00E948F048AE7F4
:1016A00095E00E949E034AE0BE018AE795E00E9411
:1016B000ED048AE795E0DF91CF910C949E031F9291
:1016C0000F920FB60F9211248F939F93AF93BF93F6
:1016D0008091AD059091AE05A091AF05B091B00598
:1016E0000196A11DB11D8093AD059093AE05A09309
:1016F000AF05B093B005BF91AF919F918F910F90BF
:101700000FBE0F901F90189562EE71E081EB95E08F
:101710000E94090F1092850010928400A0E8B0E0AA
:101720001C92E1E8F0E0108287E090E0909389005D
:10173000809388008C9180648C9380818860808302
:10174000808181608083219A68EF71E081EB95E070
:101750000C94090F63EB74E081EB95E00E94F70EA7
:1017600026E040E855E260E070E081EB95E00E9401
:10177000700D66E974E081EB95E00E94F70E67E179
:101780007AE08AE795E00E949A0368E77AE08AE7C0
:1017900095E00E9496030E94270B0E94840B0E94F2
:1017A000B70A0E94120B0E94F90A40E550E060E07F
:1017B00070E08AE795E00E94880560E874E081EBBC
:1017C00095E00C94F70E8DE590E00E948C0A60E0A5
:1017D0008AE00E94D21160E172E081EB95E00E9404
:1017E000090F88E30E94B30680E00E94B30680934D
:1017F000A50580E00E94B3068093A6052091A5056B
:1018000090E0922B9093A8058093A7050E94A60ACA
:1018100061E08AE00E94D2118091A7059091A8050D
:1018200008950E94E30BA0E0B0E08093A905909397
:10183000AA05A093AB05B093AC058091A905909142
:10184000AA05A091AB05B091AC054AE06BE975E043
:101850000E9443128BE995E00E94400B2FEF85EA2E
:101860009EE0215080409040E1F700C000000895C4
:101870000E9435110E948B0A0E94AA0BCAEBDCE081
:101880000E94110C2097E1F30E94BA0CF9CF1F922D
:101890000F920FB60F9211242F933F934F935F93A4
:1018A0006F937F938F939F93AF93BF93EF93FF9328
:1018B0000E94E30BA0E0B0E08093A9059093AA05F5
:1018C000A093AB05B093AC058091A9059091AA05B2
:1018D000A091AB05B091AC054AE06BE975E00E94C0
:1018E00043128BE995E00E94400BFF91EF91BF916D
:1018F000AF919F918F917F916F915F914F913F91A8
:101900002F910F900FBE0F901F90189527E042E087
:1019100064E08AE795E00C946003FC01818D228DE0
:1019200090E0805C9F4F821B91098F7399270895E7
:10193000FC01918D828D981731F0828DE80FF11D99
:10194000858D90E008958FEF9FEF0895FC01918DB4
:10195000828D981761F0828DDF01A80FB11D5D9611
:101960008C91928D9F5F9F73928F90E008958FEF7F
:101970009FEF08958AE29EE0892B49F080E090E095
:10198000892B29F00E942A0E81110C9400000895E1
:10199000FC01848DDF01A80FB11DA35ABF4F2C910C
:1019A000848D90E001968F739927848FA689B789DB
:1019B0002C93A089B1898C9180648C93938D848DB4
:1019C000981306C00288F389E02D80818F7D808383
:1019D0000895CF93DF93EC01888D8823C9F0EA89BD
:1019E000FB89808185FD05C0A889B9898C9186FD18
:1019F0000FC00FB607FCF5CF808185FFF2CFA88915
:101A0000B9898C9185FFEDCFCE010E94C80CE7CF3C
:101A1000DF91CF910895CF92DF92FF920F931F93A2
:101A2000CF93DF931F92CDB7DEB76C01DC015B96DD
:101A30009C915B975C968C915C97981307C050962D
:101A4000ED91FC915197808185FD32C0F601038DA7
:101A500010E00F5F1F4F0F731127F02EF601848DDA
:101A6000F81211C00FB607FCF9CFD6015096ED91D0
:101A7000FC915197808185FFF1CFC60169830E9457
:101A8000C80C6981EBCF838DE80FF11DE35AFF4F3E
:101A90006083D6015B960C935B975296ED91FC9117
:101AA000539780818062808381E058968C930DC02B
:101AB000D6015696ED91FC91579760835096ED9123
:101AC000FC91519780818064808381E090E00F9049
:101AD000DF91CF911F910F91FF90DF90CF900895EC
:101AE000BF92CF92DF92EF92FF92CF93DF93EC0100
:101AF0006A017B01B22EE889F98982E08083411571
:101B000081EE580761057105A1F060E079E08DE391
:101B100090E0A70196010E94091221503109410964
:101B200051095695479537952795211580E1380736
:101B300098F0E889F989108260E874E88EE190E015
:101B4000A70196010E94091221503109410951094A
:101B50005695479537952795EC85FD853083EE851D
:101B6000FF852083188EEC89FD89B082EA89FB8984
:101B7000808180618083EA89FB898081886080839D
:101B8000EA89FB89808180688083EA89FB8980817A
:101B90008F7D8083DF91CF91FF90EF90DF90CF908A
:101BA000BF9008951F920F920FB60F9211242F939A
:101BB0008F939F93EF93FF93E091C105F091C2053E
:101BC0008081E091C705F091C80582FD12C0908127
:101BD0008091CA058F5F8F732091CB05821751F0DA
:101BE000E091CA05F0E0EF54FA4F958F8093CA0553
:101BF00001C08081FF91EF919F918F912F910F9064
:101C00000FBE0F901F9018951F920F920FB60F9254
:101C100011242F933F934F935F936F937F938F93F1
:101C20009F93AF93BF93EF93FF9381EB95E00E9457
:101C3000C80CFF91EF91BF91AF919F918F917F91D0
:101C40006F915F914F913F912F910F900FBE0F9029
:101C50001F90189581EB95E00E948D0C21E0892B57
:101C600009F420E0822F08951092B4051092B30574
:101C700088EE93E0A0E0B0E08093B5059093B605C0
:101C8000A093B705B093B80587E292E09093B205B0
:101C90008093B10585EC90E09093BE058093BD05DF
:101CA00084EC90E09093C0058093BF0580EC90E0B9
:101CB0009093C2058093C10581EC90E09093C40598
:101CC0008093C30582EC90E09093C6058093C50590
:101CD00086EC90E09093C8058093C7051092CA05E2
:101CE0001092CB051092CC051092CD050895CF929D
:101CF000DF92EF92FF920F931F93CF93DF936C01CC
:101D00007A01EB01E60EF71E00E010E0CE15DF05CC
:101D100061F06991D601ED91FC910190F081E02D87
:101D2000C6010995080F191FF1CFC801DF91CF91A6
:101D30001F910F91FF90EF90DF90CF900895611564
:101D4000710581F0DB010D900020E9F7AD014150F4
:101D50005109461B570BDC01ED91FC910280F38188
:101D6000E02D099480E090E00895EF92FF920F93A8
:101D70001F93CF93DF938C01FB01C0E0D0E064910F
:101D80007F018FEFE81AF80A662361F0D801ED9120
:101D9000FC910190F081E02DC8010995C80FD91F71
:101DA000F701EDCFCE01DF91CF911F910F91FF9001
:101DB000EF9008950C949F0EDC01ED91FC91019041
:101DC000F081E02D09940F931F93CF93DF93EC01E3
:101DD0006DE00E94DC0E8C016AE0CE010E94DC0EF8
:101DE000800F911FDF91CF911F910F9108950F9355
:101DF0001F93CF93DF93EC010E94B50E8C01CE01AF
:101E00000E94E30E800F911FDF91CF911F910F91E0
:101E100008950F931F93CF93DF93EC010E949F0EC1
:101E20008C01CE010E94E30E800F911FDF91CF91B4
:101E30001F910F9108958F929F92AF92BF92CF9270
:101E4000DF92EF92FF920F931F93CF93DF93CDB763
:101E5000DEB7A1970FB6F894DEBF0FBECDBF7C01F1
:101E6000C42EE52FCB01D22E19A221E02D1510F0A2
:101E70002AE0D22E8E010F5D1F4F8D2C912CA12CAC
:101E8000B12C6C2D7E2FA50194010E9409128C2D7E
:101E9000D29E80191124015011098A3014F4805DFA
:101EA00001C0895CF8018083211531054105510588
:101EB00021F0C22EE32FCA01E4CFB801C7010E946E
:101EC0009F0EA1960FB6F894DEBF0FBECDBFDF9177
:101ED000CF911F910F91FF90EF90DF90CF90BF9027
:101EE000AF909F908F900895CF92DF92EF92FF92E4
:101EF0000F931F93CF93DF93EC016A017B012115B0
:101F0000310579F4E881F9810190F081E02D642FA9
:101F1000DF91CF911F910F91FF90EF90DF90CF90C5
:101F200009942A303105E9F477FF1AC06DE20E9466
:101F3000DC0E8C0144275527BA014C195D096E0946
:101F40007F092AE0CE010E941B0F800F911FDF91B5
:101F5000CF911F910F91FF90EF90DF90CF90089558
:101F60002AE0B701A601CE01DF91CF911F910F9119
:101F7000FF90EF90DF90CF900C941B0F9A01AB0174
:101F8000662757FD6095762F0C94740F2115310547
:101F900041F4DC01ED91FC910190F081E02D642F82
:101FA00009940C941B0F9A01462F50E060E070E0FA
:101FB0000C94C60F0F931F93CF93DF93EC019A01FC
:101FC000462F50E060E070E00E94C60F8C01CE0109
:101FD0000E94E30E800F911FDF91CF911F910F910F
:101FE00008958230E8F4E82FF0E0EE0FFF1FE25B87
:101FF000F94F71836083813041F0809169008C7F5B
:10200000842B80936900E89A089580916900440FB9
:10201000551F440F551F837F842B80936900E99AD5
:102020000895823068F4813011F0E89801C0E99891
:10203000E82FF0E0EE0FFF1FE25BF94F11821082F4
:1020400008951F920F920FB60F9211242F933F9372
:102050004F935F936F937F938F939F93AF93BF93B0
:10206000EF93FF9380914E0690914F06892B29F0B4
:10207000E0914E06F0914F060995FF91EF91BF91C7
:10208000AF919F918F917F916F915F914F913F9110
:102090002F910F900FBE0F901F901895CF93CFB731
:1020A000F89480915506811127C0ECE5F5E0849104
:1020B000E8E4F5E09491E82FF0E0EE0FFF1FE0591F
:1020C000FA4FA591B4918C91892321F461E08AE0C3
:1020D0000E94D21161E08AE00E9499118CB5806162
:1020E0008CBD8CB580648CBD61E08DE00E9499113F
:1020F00061E08BE00E949911809155068F5F80937B
:102100005506CFBFCF9108952FB7F894882339F0A3
:10211000813039F082E08093540690E003C091E072
:1021200001C092E080915306892B809353068091E1
:102130005406811103C081E0809354062FBF089597
:102140001F920F920FB60F9211242F933F938F93EC
:102150009F93AF93BF938091570690915806A0919B
:102160005906B0915A063091560623E0230F2D37B9
:1021700020F40196A11DB11D05C026E8230F02968B
:10218000A11DB11D209356068093570690935806C3
:10219000A0935906B0935A0680915B0690915C0615
:1021A000A0915D06B0915E060196A11DB11D8093C0
:1021B0005B0690935C06A0935D06B0935E06BF91AC
:1021C000AF919F918F913F912F910F900FBE0F90E4
:1021D0001F9018953FB7F89480915B0690915C062C
:1021E000A0915D06B0915E0626B5A89B05C02F3F65
:1021F00019F00196A11DB11D3FBF6627782F892FC9
:102200009A2F620F711D811D911D42E0660F771F8D
:10221000881F991F4A95D1F70895CF92DF92EF92C8
:10222000FF92CF93DF936B017C010E94EA10EB01D8
:10223000C114D104E104F10489F00E9408120E9443
:10224000EA106C1B7D0B683E734090F381E0C81A66
:10225000D108E108F108C851DC4FEACFDF91CF91F6
:10226000FF90EF90DF90CF900895789484B58260CE
:1022700084BD84B5816084BD85B5826085BD85B52A
:10228000816085BDEEE6F0E0808181608083E1E8D9
:10229000F0E0108280818260808380818160808311
:1022A000E0E8F0E0808181608083E1EBF0E0808114
:1022B00084608083E0EBF0E0808181608083EAE7E6
:1022C000F0E080818460808380818260808380816F
:1022D000816080838081806880831092C10008952E
:1022E000833081F028F4813099F08230A1F0089594
:1022F0008730A9F08830B9F08430D1F48091800023
:102300008F7D03C0809180008F7780938000089537
:1023100084B58F7702C084B58F7D84BD0895809188
:10232000B0008F7703C08091B0008F7D8093B000A4
:102330000895CF93DF9390E0FC01E25CFA4F249183
:10234000FC01EE5AFA4F8491882349F190E0880FFE
:10235000991FFC01E059FA4FA591B4918A599A4FFF
:10236000FC01C591D4919FB7611108C0F8948C917C
:10237000209582238C93888182230AC0623051F495
:10238000F8948C91322F309583238C938881822B03
:10239000888304C0F8948C91822B8C939FBFDF912B
:1023A000CF9108950F931F93CF93DF931F92CDB7D3
:1023B000DEB7282F30E0F901E65DFA4F8491F9018C
:1023C000E25CFA4F1491F901EE5AFA4F049100239E
:1023D000C9F0882321F069830E9470116981E02F80
:1023E000F0E0EE0FFF1FEA59FA4FA591B4919FB7A5
:1023F000F8948C91611103C01095812301C0812B49
:102400008C939FBF0F90DF91CF911F910F910895F3
:102410000895A1E21A2EAA1BBB1BFD010DC0AA1F25
:10242000BB1FEE1FFF1FA217B307E407F50720F03D
:10243000A21BB30BE40BF50B661F771F881F991FB8
:102440001A9469F760957095809590959B01AC0101
:10245000BD01CF010895EE0FFF1F0590F491E02D0F
:102460000994FB01DC0102C005900D9241505040DF
:10247000D8F70895FB01DC0102C001900D92415094
:102480005040D8F70895BB27FB015527AA27880F8E
:10249000991FAA1FA41710F0A41B83955051B9F7D8
:1024A000A05DAA3308F0A95DA193009779F7B11157
:1024B000B1931192CB010C945D12DC01FC01672FEA
:1024C00071917723E1F7329704C07C916D9370830B
:0E24D0006291AE17BF07C8F30895F894FFCFCE
:1024DE000180000108000102000102000180006776
:1024EE006F6F6600000000004B05770EE902F602E2
:1024FE0021033803203A00204500430020307800A5
:10250E0061646320636F6E666967207374617274B1
:10251E0065640061646320636F6E66696720636F34
:10252E006D706C657465640074696D657220636F9F
:10253E006E66696720737461727465640074696D88
:10254E00657220636F6E66696720636F6D706C6570
:10255E0074656400696E746572727570747320634D
:10256E006F6E666967207374617274656400696E5C
:10257E00746572727570747320636F6E666967200E
:10258E00636F6D706C6574656400636F6E6669670A
:10259E0050696E73207374617274656400636F6E3C
:1025AE0066696750696E7320636F6D706C657465D4
:1025BE006400636F6E6669674D656761436C6B207F
:1025CE005374617274656400636F6E6669674D65FE
:1025DE006761436C6B20436F6D706C65746564004E
:1025EE00506572666F726D696E6720726561642EDA
:1025FE002E2E00000000000B0D770E8D0CA60C98F1
:04260E000CE90C00C7
:00000001FF
