:100000000C9477020C94CD0E0C94470A0C949F022A
:100010000C949F020C949F020C949F020C949F02DC
:100020000C949F020C94A80A0C949F020C949F02BB
:100030000C949F020C949F020C949F020C949F02BC
:100040000C944C0F0C949F020C947E0C0C94B00CEE
:100050000C949F020C949F020C949F020C949F029C
:100060000C949F020C949F02700344044404A40364
:10007000D003EF034404DD0344041A0444040604DB
:100080002004202050697065204572726F722043F1
:100090006F64653A203078004143492045767420EA
:1000A00050697065204572726F723A2050697065B0
:1000B00020233A0045767420436D64207265737086
:1000C0006F6E653A204572726F722E2041726475B0
:1000D000696E6F20697320696E20616E2077686990
:1000E0006C652831293B206C6F6F700041434920BB
:1000F000436F6D6D616E6420004572726F7220698E
:100100006E20414349205365747570000957726928
:1001100074696E67206F6E6520627974652030782F
:1001200000203078000957726974696E67206F7516
:100130007420746F2042544C453A000007060000BA
:10014000030241D700000000000000000000000092
:10015000000000000000000000000000001F06106A
:10016000000000000000000400040101000006007F
:1001700000900000000000000000000000001F06CA
:10018000101C010200000000000000000000000040
:100190000000000000140000001403900164001F20
:1001A00006103802FF0258000500000000000000A1
:1001B000000000001000000000000000000000002F
:1001C00005061054000000000000000000000000C0
:1001D000000000000000000000000000000000001F
:1001E000001F06200004040202000128000100187C
:1001F0000404050500022803010E0300002A04146C
:1002000007001F06201C0400032A00015541525418
:100210006963730404050500042803010205000155
:100220002A06001F06203804030200052A010100E7
:1002300000040405050006280301020700042A063D
:10024000040908001F06205400072A0401060012B2
:100250000000000A0004040202000828000101183E
:1002600004041010001F06207000092800019ECA17
:10027000DC240EE5A9E093F3A3B50100406E04046D
:100280001313000A28001F06208C0301040B009E94
:10029000CADC240EE5A9E093F3A3B50200406E4446
:1002A000101400000B00001F0620A802020000002E
:1002B000000000000000000000000000000000003E
:1002C0000004041313000C001F0620C428030110AF
:1002D0000D009ECADC240EE5A9E093F3A3B503004C
:1002E000406E14001400000D001F0620E000030201
:1002F00000000000000000000000000000000000FE
:10030000000000004614030200001F0620FC0E2916
:100310000201000004040202000F2800010A180470
:100320000405050010280301021100190621180018
:10033000272A0404090100112A27010A00000000ED
:100340000000000000000000000000001F06400048
:100350002A000100800400030000000202000804DB
:10036000000B0000000302000204000D000F064015
:100370001C000E2A2701008004001100000000006C
:100380000000000000000000000000000000130654
:1003900050009ECADC240EE5A9E093F3A3B500004B
:1003A000406E000000000000000000000000000F90
:1003B00006600000000000000000000000000000D7
:1003C000000000000000000000000000000000002D
:1003D0000606F00003D388000000000000000000C3
:1003E000000000000000000000000000000000000D
:1003F000436D642051756575652046756C6C000011
:100400002C2000416461667275697420426C7565C8
:100410006672756974204C6F7720456E65726779D6
:10042000206E5246383030312043616C6C6261631B
:100430006B204563686F2064656D6F00205D002050
:100440005B002062797465733A20005265636569C8
:100450007665642000446973636F6E6E65637465CE
:1004600064206F72206164766572746973696E6767
:100470002074696D6564206F757400436F6E6E65DE
:100480006374656421004164766572746973696E92
:1004900067207374617274656400000000080002D4
:1004A000010000030407000000000000000001023A
:1004B00004081020408001020408102001020408F2
:1004C00010200404040404040404020202020202D0
:1004D00003030303030300000000250028002B0092
:1004E00000000000240027002A00320BE00C112439
:1004F0001FBECFEFD8E0DEBFCDBF12E0A0E0B1E07D
:10050000E2EEF1E202C005900D92A239B107D9F7EF
:1005100026E0A2E9B2E001C01D92AF3AB207E1F7CE
:1005200014E0CEEED4E004C02297FE010E94D91060
:10053000CA3ED107C9F70E94230B0C94EF100C940C
:10054000000080919802909199022091960230913A
:100550009702821B930B8F7399270895209198021D
:10056000309199028091960290919702281739074D
:10057000E9F0E0919602F0919702E656FD4F8081F6
:1005800020919602309197022F5F3F4F3093970250
:100590002093960220919602309197022F73332771
:1005A000309397022093960290E008958FEF9FEF8B
:1005B000089520919802309199028091960290912D
:1005C00097022817390749F0E0919602F0919702B7
:1005D000E656FD4F808190E008958FEF9FEF0895DC
:1005E000089520E030E050E02417350704F58091AD
:1005F00098029091990201968F739927E091960243
:10060000F09197028E179F0779F0E0919802F09190
:100610009902DB01A20FB31FAC91E656FD4FA083F8
:1006200090939902809398022F5F3F4FDDCF0895FA
:100630000F931F93CF93DF93FC01522F13821282EB
:1006400008EE13E020E030E004831583268337832F
:1006500085E191E09183808381E0808B60939402B7
:10066000409393025093950217861686158614863A
:10067000DF01559688E0ED0119928A95E9F710920D
:10068000970210929602109299021092980286E8B0
:10069000858FDF91CF911F910F910895FC01758790
:1006A00064870895FC01778766870895CF93DF9369
:1006B000EC016BED72E08DEF92E00E942609882339
:1006C00009F4E2C04091DD0250E0FA01E158F1097D
:1006D000ED30F10508F0D8C0EC5CFF4F0C94D7105A
:1006E0008091E002809304038091DE02823019F051
:1006F0008330A1F0C9C08DEF92E00E9456050297A9
:1007000009F4C2C08889882309F4BEC069EF70E08B
:1007100081E096E0DF91CF910C94A30D8D89882321
:1007200009F464C0AE014B5E5F4FFA0101900020F6
:10073000E9F79F0121503109241B350B61E08DEF52
:1007400092E00E94860852C08091DF028823C9F09F
:100750008889811101C0FFCF6CEE70E081E096E0E6
:100760000E94610D40E150E06091DE0281E096E080
:100770000E94860E64EB70E081E096E00E94A30D7B
:10078000EACF8091DE02893009F07EC029E040EE98
:1007900052E064E08DEF92E0DF91CF910C948608F7
:1007A00080910403809307030E947E0885E88D8F63
:1007B000EC85FD85309709F0099563E08DEF92E0B7
:1007C0000E942508882309F45FC08091DA02811114
:1007D0005BC00E941E0981E08093DA0255C086E862
:1007E0008D8FEC85FD85309709F009956B897C89A3
:1007F00089899A890E94C10881E88D8FEC85FD85E1
:10080000309709F441C0DF91CF9109944091DC0207
:1008100042506FED72E0CE010E94F102EE85FF853D
:10082000309791F16091DC0262508FED92E0DF91A0
:10083000CF9109948091DE0290910703890F22C025
:1008400088898823E1F068E970E081E096E00E9401
:10085000610D4AE050E06091DE0281E096E00E9486
:100860007F0E62E870E081E096E00E94610D40E159
:1008700050E06091DF0281E096E00E94860E809158
:1008800007038F5F80930703DF91CF910895CF9285
:10089000DF92EF92FF920F931F93CF93DF937C0130
:1008A0008B01D42E65E271E081E096E00E94610D3B
:1008B000C02EC02FD12F8C2F8C198D1570F461E2B2
:1008C00071E081E096E00E94610D699140E150E0A5
:1008D00081E096E00E947F0EEECF81E096E00E94DC
:1008E0008F0DC0E0DD2021F163E08DEF92E00E94EA
:1008F0002508811104C0C7010E945603F3CFDD2DE6
:1009000084E18D1508F4D4E14D2FB8016C0F711DF1
:1009100083E00E94DD0880910703815080930703E4
:1009200063E270E080E090E00E94B90FDD1A59F4B4
:100930008C2F90E0DF91CF911F910F91FF90EF905E
:10094000DF90CF900895CD0FCDCF0F931F93CF930E
:10095000DF931F92CDB7DEB78C0169836CE071E045
:1009600081E096E00E94610D40E150E0698181E004
:1009700096E00E94860E63E08DEF92E00E942508CB
:100980008823A9F041E0BE016F5F7F4F83E00E94A2
:10099000DD088091070381508093070363E270E0D4
:1009A00080E090E00E94B90F81E090E005C0C801AE
:1009B0000E94560380E090E00F90DF91CF911F914D
:1009C0000F910895FC01728B618B548B438B80E0F7
:1009D00091E09093FE028093FD0284E08093FF02F9
:1009E0008BE391E0909301038093000385E1809372
:1009F00002038DEF92E00E94360881E00895CF92C5
:100A0000DF92EF92FF920F931F93CF93DF938C01AE
:100A1000C62E81E2489F70011124C0E0D0E0D12CA5
:100A2000DC1411F1CE018E0D9F1DF80163817481DC
:100A3000680F791FFB013196449150E04E5F5F4F84
:100A40008FE193E00E94DD108FE193E00E94DE06CB
:100A5000A196811107C060EF73E081E096E00E94EB
:100A6000A30D19C0D394DCCFC0E060E473E0C801EB
:100A70000E9426098823C9F3CF5F809142038438FE
:100A800051F4809144039FEF980F923010F4CC12F0
:100A9000ECCF90E002C081E890E0DF91CF911F9110
:100AA0000F91FF90EF90DF90CF9008950F931F93D9
:100AB000CF93DF93EC016D81693028F000E010E006
:100AC00088E890E002C040E015C06D81262F269591
:100AD00026952695121740F4402F68E0CE010E941B
:100AE000FF041F5F085FF1CF677059F0412F440F7B
:100AF000440F440FCE01DF91CF911F910F910C94C1
:100B0000FF04DF91CF911F910F91089521E0FC0127
:100B1000208329E02183089522E0240FDC012C9317
:100B20002DE011962C931197FB01219112962C9395
:100B300050E0BF0103960C94E610FC01DB0185E058
:100B400080838FE0818311968C91119783838C91A0
:100B5000828313968C911397858312968C9184834C
:100B6000089522E0240FDC012C9325E111962C93AB
:100B70001197FB01219112962C9350E0BF0103962F
:100B80000C94E61021E0FC01208323E121830895E9
:100B900010927605FC01E85FFE4F108231961082BC
:100BA000EEE6F4E0DF0111971C921082B19685E029
:100BB000E637F807B9F708950F931F93CF93DF93A4
:100BC000EC0109814AE050E0602F81E096E00E944C
:100BD0007F0E61E271E081E096E00E94860D10E0F8
:100BE000FE01E10FF11D40E150E0618181E096E0FE
:100BF0000E947F0E60E074E081E096E00E94610D4B
:100C00001F5F011768F76FEF73E081E096E0DF91F7
:100C1000CF911F910F910C94A30D8EBD00000DB4C8
:100C200007FEFDCF8EB5089590919302923019F092
:100C3000933019F01BC020E001C021E03DB38823B0
:100C400051F081E090E0022E01C0880F0A94EAF78B
:100C5000382B3DBB089581E090E0022E01C0880F43
:100C60000A94EAF7809583238DBB0895FFCF0F93F5
:100C70001F93CF93DF93EC01F89400916B041091D4
:100C80006A047894E0916A0480916B04E81761F13A
:100C900091E29E9FF0011124EE59FC4FDE0101907C
:100CA0000D929A95E1F720916A0430E02F5F3F4F53
:100CB0002770332720936A0480917605882349F0B2
:100CC00064E271E081E096E00E94860DCE010E9410
:100CD000DC05802F90E0019687709927181306C0D5
:100CE00081E00E94140602C080E001C081E0DF9133
:100CF000CF911F910F910895109278050E94FA0EDE
:100D00008CE694E00E94C80582E693E00E94C80544
:100D100061E0809195020E94451062E0809193020B
:100D20000E94451061E0809194020E94451061E0AC
:100D3000809195020E947E1064E670E080E090E071
:100D40000E94B90F60E0809195020E947E1061E0E0
:100D5000809195020E947E1060E08DE00E947E10DE
:100D600060E08BE00E947E1061E0809194020E941E
:100D70007E1060E08DE00E947E108FEF80939202E3
:100D800080919302823019F41092920205C0833050
:100D900019F481E0809392026EE170E080E090E0CF
:100DA0000E94B90F809192020E94300F40E050E003
:100DB00061EE77E0809192020C949D0E0F931F9349
:100DC000CF93DF938C01FC0141814032C0F520912B
:100DD000750530E0E9012196C770DD278091740523
:100DE0008C17C1F051E2529FC001539F900D112406
:100DF000FC01E459FB4F108250E04F5F5F4FB80198
:100E00006F5F7F4F83599B4F0E94E610C09375051B
:100E1000C1E001C0C0E080917605882349F067E217
:100E200071E081E096E00E94860DC8010E94DC0519
:100E300060E0809194020E947E108C2F01C080E0BF
:100E4000DF91CF911F910F910895CF92DF92EF9292
:100E5000FF920F931F93CF93DF93CDB7DEB7A29787
:100E60000FB6F894DEBF0FBECDBF8091A4068823D5
:100E700099F09FB7F8948091A406813059F48DB30E
:100E80008093A2062DB38091A306809582238DBB0B
:100E90009FBF02C09093A20681E78CBD81E08DBD0B
:100EA00060E0809194020E947E1080917405909180
:100EB0007505891709F472C090E021E2289FF001BE
:100EC000299FF00D1124E459FB4FDE01119601908A
:100ED0000D922A95E1F70196877099278093740502
:100EE0001A81812F0E940D06809377058B810E94C5
:100EF0000D0680937805112349F0412F50E0282FEB
:100F000030E02417350714F48FEF810F982F8032CB
:100F100008F09FE17E0184E0E80EF11C89E7C82E0D
:100F200085E0D82E8601802F8C19891758F4F70197
:100F300081917F019AA30E940D06F80181938F0190
:100F40009AA1F1CF61E0809194020E947E1080917D
:100F5000A406882361F09FB7F8942091A40680919D
:100F6000A206213019F48DBB9FBF01C08FBF83B78C
:100F7000816083BF40E050E061EE77E080919202B3
:100F80000E949D0E9091740580917505981741F00F
:100F900060E0809194020E947E1002C01A82A0CF6D
:100FA00087E795E0A2960FB6F894DEBF0FBECDBFDF
:100FB000DF91CF911F910F91FF90EF90DF90CF9035
:100FC0000895CF93DF9383B78E7F83BF8091920282
:100FD0000E94BD0E0E942507FC014181442391F12E
:100FE00060916B0470E0EB012196C770DD272091C2
:100FF0006A042C1731F151E2569F9001579F300D32
:101000001124F901EE59FC4F108250E04F5F5F4F01
:10101000BC016F5F7F4FC9018D599C4F0E94E61044
:10102000C0936B04F89480916B048F5F87709091EC
:101030006A047894891306C080E0DF91CF910C9404
:101040001406FFCFDF91CF910895262F2695269580
:101050002695820F911DFC01818990E0677002C086
:10106000959587956A95E2F781700895CF93DF9300
:10107000FC01A9E9B5E080E090E0EF01C80FD91FBD
:10108000198A198E1D92019688309105B1F7109238
:10109000A6051092A5051092A4051092A3058FEF46
:1010A0008093AE058093AD058093AC051092AA05A0
:1010B0001092A9051092A8051092A7051092A205FA
:1010C0001092A105109298051092B0051092AF05EC
:1010D000808191819093D7058093D60582818093FA
:1010E000D505838194819093D4058093D305858120
:1010F0008093D205DF91CF910C947C0682EB95E032
:101100000E94860581EB95E00C94DE06CF93DF9379
:10111000CDB7DEB766970FB6F894DEBF0FBECDBF72
:10112000CA01E091D605F091D70533E0639FE00D49
:10113000F11D1124339730813130C9F42531B8F4D1
:101140006983422F50E0BC01CE0102962E8B0E9493
:10115000E6102E89422FBE016F5F7F4F82EB95E034
:101160000E948C0581EB95E00E94DE0601C080E0C4
:1011700066960FB6F894DEBF0FBECDBFDF91CF915C
:101180000895CF93DF9300D000D0CDB7DEB79A8318
:1011900089837C836B83BE016F5F7F4F82EB95E019
:1011A0000E949D0581EB95E00E94DE060F900F9056
:1011B0000F900F90DF91CF9108951F93CF93DF93FE
:1011C000CDB7DEB765970FB6F894DEBF0FBECDBFC3
:1011D000142FE091D605F091D70593E0899FE00D9B
:1011E000F11D11243397218132812230310519F00C
:1011F00024303105C1F41531B0F48983412F50E01A
:10120000CE0102960E94E610412FBE016F5F7F4F14
:1012100082EB95E00E94B1051092AB0581EB95E061
:101220000E94DE0601C080E065960FB6F894DEBF2E
:101230000FBECDBFDF91CF911F91089582EB95E056
:101240000E94C20581EB95E00C94DE060F931F937C
:10125000CF93DF93EC018B01CB010E943706F8019D
:101260009281983839F0993851F19638A9F520E0F3
:1012700030E017C020E030E00F5F1F4FD801A20F11
:10128000B31F12969C911297FE01E20FF31F918BF0
:101290001A969C91918F2F5F3F4F2830310571F73F
:1012A0001BC0FE01E20FF31F118A118E2F5F3F4F0B
:1012B00028303105B1F719A29F819A870DC0F80136
:1012C000238134813C872B87258136813E872D877A
:1012D00027813085388B2F87DF91CF911F910F9118
:1012E0000895DF92EF92FF920F931F93CF93DF93B6
:1012F000EC01D62E6BE474E081E096E00E94610D73
:101300004AE050E06D2D81E096E00E947F0E62E49D
:1013100074E081E096E00E94610D8E01ED2CF12CCD
:10132000C8018C1B9D0B8E159F0544F4F80161913B
:101330008F0181E096E00E94880DF2CF6FE374E0A8
:1013400081E096E00E94610D8E01C8018C1B9D0B0F
:101350008E159F05A4F469E271E081E096E00E9499
:10136000860DF80181918F01682F772767FD7095B1
:1013700040E150E081E096E00E946A0EE6CF6CE327
:1013800074E081E096E00E94A30D4D2DBE0188ED32
:1013900095E0DF91CF911F910F91FF90EF90DF903B
:1013A0000C944704CF93C82F6DE271E081E096E082
:1013B0000E94B50DC53839F0C63841F0C13869F41E
:1013C00066E874E005C06BE774E002C065E574E0B0
:1013D00081E096E0CF910C94A30DCF9108950895EC
:1013E0009CB5937F982B9CBD08952CB5982F937036
:1013F0002C7F922B9CBD9DB582FB882780F99E7F18
:10140000982B9DBD08955D9A2A988CB580628CBDFD
:1014100080E00E94F00985E00E94F50967E471E030
:1014200081E096E00C94B50D88ED95E00C945603A0
:101430000E94030A66E671E081E096E00E94B50D25
:101440001092B000E1EBF0E01082A0E7B0E08C91E8
:1014500081608C938081846080836BE771E081E0A0
:1014600096E00C94B50D62E971E081E096E00E948F
:10147000B50D53985B9AE9E6F0E08081886080833F
:10148000E99A6CEA71E081E096E00C94B50D1F9248
:101490000F920FB60F9211242F933F934F935F93A8
:1014A0006F937F938F939F93AF93BF93EF93FF932C
:1014B0004091FD055091FE056091FF057091000679
:1014C0008091F9059091FA05A091FB05B091FC057A
:1014D00088539F4FAF4FBF4F84179507A607B70795
:1014E00000F567E472E081E096E00E94B50D45E00A
:1014F0006CE071E088ED95E00E9447048091FD0565
:101500009091FE05A091FF05B09100068093F9052A
:101510009093FA05A093FB05B093FC0568E572E093
:1015200002C06CE672E081E096E00E94B50DFF918A
:10153000EF91BF91AF919F918F917F916F915F914B
:101540004F913F912F910F900FBE0F901F901895C4
:101550001F920F920FB60F9211248F939F93AF9308
:10156000BF938091FD059091FE05A091FF05B0917C
:1015700000060196A11DB11D8093FD059093FE0507
:10158000A093FF05B0930006BF91AF919F918F91FB
:101590000F900FBE0F901F9018951092850010921B
:1015A0008400A0E8B0E01C92E1E8F0E0108287E05F
:1015B00090E090938900809388008C9180648C9354
:1015C000808188608083808181608083219A0895F2
:1015D00026E040E855E260E070E081E096E00E949D
:1015E0001C0C63E074E081E096E00E94A30D109271
:1015F000FD051092FE051092FF0510920006109254
:10160000F9051092FA051092FB051092FC0540E5D1
:1016100050E060E070E088ED95E00E94E2040E94F6
:10162000330A0E94180A0E94CD0A0E94030A61E749
:1016300079E088ED95E00E94520362ED79E088ED53
:1016400095E00C944E030E94E10F0E94EF090E9466
:10165000E80AC6E6DBE00E94140A2097E1F30E9444
:10166000660BF9CF27E042E06AE088ED95E00C9444
:101670001803FC01818D228D90E0805C9F4F821BBE
:1016800091098F7399270895FC01918D828D981788
:1016900031F0828DE80FF11D858D90E008958FEF78
:1016A0009FEF0895FC01918D828D981761F0828DD6
:1016B000DF01A80FB11D5D968C91928D9F5F9F7386
:1016C000928F90E008958FEF9FEF089586ED9CE054
:1016D000892B49F080E090E0892B29F00E94D60CFC
:1016E00081110C9400000895FC01848DDF01A80F86
:1016F000B11DA35ABF4F2C91848D90E001968F733A
:101700009927848FA689B7892C93A089B1898C9158
:1017100080648C93938D848D981306C00288F3891E
:10172000E02D80818F7D80830895CF93DF93EC013E
:10173000888D8823C9F0EA89FB89808185FD05C0F1
:10174000A889B9898C9186FD0FC00FB607FCF5CF2B
:10175000808185FFF2CFA889B9898C9185FFEDCF73
:10176000CE010E94740BE7CFDF91CF910895CF9205
:10177000DF92FF920F931F93CF93DF931F92CDB70A
:10178000DEB76C01DC015B969C915B975C968C915B
:101790005C97981307C05096ED91FC91519780810A
:1017A00085FD32C0F601038D10E00F5F1F4F0F73F0
:1017B0001127F02EF601848DF81211C00FB607FC28
:1017C000F9CFD6015096ED91FC915197808185FF1C
:1017D000F1CFC60169830E94740B6981EBCF838DC1
:1017E000E80FF11DE35AFF4F6083D6015B960C931F
:1017F0005B975296ED91FC91539780818062808334
:1018000081E058968C930DC0D6015696ED91FC91CF
:10181000579760835096ED91FC9151978081806439
:10182000808381E090E00F90DF91CF911F910F9125
:10183000FF90DF90CF900895BF92CF92DF92EF920A
:10184000FF92CF93DF93EC016A017B01B22EE8890E
:10185000F98982E08083411581EE580761057105A1
:10186000A1F060E079E08DE390E0A70196010E948D
:10187000B5102150310941095109569547953795C1
:101880002795211580E1380798F0E889F9891082B9
:1018900060E874E88EE190E0A70196010E94B5101F
:1018A000215031094109510956954795379527959A
:1018B000EC85FD853083EE85FF852083188EEC89CD
:1018C000FD89B082EA89FB89808180618083EA8911
:1018D000FB89808188608083EA89FB8980818068B8
:1018E0008083EA89FB8980818F7D8083DF91CF911E
:1018F000FF90EF90DF90CF90BF9008951F920F92CE
:101900000FB60F9211242F938F939F93EF93FF9312
:10191000E0911106F09112068081E0911706F09196
:10192000180682FD12C0908180911A068F5F8F7316
:1019300020911B06821751F0E0911A06F0E0EF5F4C
:10194000F94F958F80931A0601C08081FF91EF9126
:101950009F918F912F910F900FBE0F901F90189510
:101960001F920F920FB60F9211242F933F934F9314
:101970005F936F937F938F939F93AF93BF93EF93F7
:10198000FF9381E096E00E94740BFF91EF91BF916D
:10199000AF919F918F917F916F915F914F913F9107
:1019A0002F910F900FBE0F901F90189581E096E039
:1019B0000E94390B21E0892B09F420E0822F089541
:1019C000109204061092030688EE93E0A0E0B0E0C7
:1019D0008093050690930606A0930706B093080629
:1019E00085E892E0909302068093010685EC90E0F2
:1019F00090930E0680930D0684EC90E09093100671
:101A000080930F0680EC90E090931206809311066D
:101A100081EC90E0909314068093130682EC90E0A2
:101A2000909316068093150686EC90E09093180626
:101A30008093170610921A0610921B0610921C062D
:101A400010921D060895CF92DF92EF92FF920F93AE
:101A50001F93CF93DF936C017A01EB01E60EF71E23
:101A600000E010E0CE15DF0561F06991D601ED913F
:101A7000FC910190F081E02DC6010995080F191F16
:101A8000F1CFC801DF91CF911F910F91FF90EF909F
:101A9000DF90CF9008956115710581F0DB010D9005
:101AA0000020E9F7AD0141505109461B570BDC01FD
:101AB000ED91FC910280F381E02D099480E090E0AB
:101AC0000895EF92FF920F931F93CF93DF938C01B2
:101AD000FB01C0E0D0E064917F018FEFE81AF80AC3
:101AE000662361F0D801ED91FC910190F081E02D29
:101AF000C8010995C80FD91FF701EDCFCE01DF91BD
:101B0000CF911F910F91FF90EF9008950C944B0D82
:101B1000DC01ED91FC910190F081E02D09940F938F
:101B20001F93CF93DF93EC016DE00E94880D8C0131
:101B30006AE0CE010E94880D800F911FDF91CF9146
:101B40001F910F9108950F931F93CF93DF93EC0193
:101B50000E94610D8C01CE010E948F0D800F911F9C
:101B6000DF91CF911F910F9108950F931F93CF9302
:101B7000DF93EC010E944B0D8C01CE010E948F0D72
:101B8000800F911FDF91CF911F910F9108958F9238
:101B90009F92AF92BF92CF92DF92EF92FF920F93FC
:101BA0001F93CF93DF93CDB7DEB7A1970FB6F8940D
:101BB000DEBF0FBECDBF7C01C42EE52FCB01D22EE0
:101BC00019A221E02D1510F02AE0D22E8E010F5D12
:101BD0001F4F8D2C912CA12CB12C6C2D7E2FA5018B
:101BE00094010E94B5108C2DD29E801911240150B1
:101BF00011098A3014F4805D01C0895CF80180838A
:101C0000211531054105510521F0C22EE32FCA01EE
:101C1000E4CFB801C7010E944B0DA1960FB6F8940E
:101C2000DEBF0FBECDBFDF91CF911F910F91FF900F
:101C3000EF90DF90CF90BF90AF909F908F900895DE
:101C4000CF92DF92EF92FF920F931F93CF93DF9388
:101C5000EC016A017B012115310579F4E881F981F4
:101C60000190F081E02D642FDF91CF911F910F91B2
:101C7000FF90EF90DF90CF9009942A303105E9F47E
:101C800077FF1AC06DE20E94880D8C01442755270A
:101C9000BA014C195D096E097F092AE0CE010E9444
:101CA000C70D800F911FDF91CF911F910F91FF9072
:101CB000EF90DF90CF9008952AE0B701A601CE0102
:101CC000DF91CF911F910F91FF90EF90DF90CF9018
:101CD0000C94C70D9A01AB01662757FD6095762FCE
:101CE0000C94200E2115310541F4DC01ED91FC919D
:101CF0000190F081E02D642F09940C94C70D9A0196
:101D0000462F50E060E070E00C94720E0F931F932A
:101D1000CF93DF93EC019A01462F50E060E070E032
:101D20000E94720E8C01CE010E948F0D800F911FB8
:101D3000DF91CF911F910F9108958230E8F4E82F41
:101D4000F0E0EE0FFF1FE256F94F718360838130A0
:101D500041F0809169008C7F842B80936900E89A20
:101D6000089580916900440F551F440F551F837FCC
:101D7000842B80936900E99A0895823068F4813059
:101D800011F0E89801C0E998E82FF0E0EE0FFF1F8E
:101D9000E256F94F1182108208951F920F920FB6EA
:101DA0000F9211242F933F934F935F936F937F93E1
:101DB0008F939F93AF93BF93EF93FF9380919E0672
:101DC00090919F06892B29F0E0919E06F0919F0645
:101DD0000995FF91EF91BF91AF919F918F917F9165
:101DE0006F915F914F913F912F910F900FBE0F9088
:101DF0001F901895CF93CFB7F8948091A5068111C5
:101E000027C0ECECF4E08491E8EBF4E09491E82F47
:101E1000F0E0EE0FFF1FE052FB4FA591B4918C91C3
:101E2000892321F461E08AE00E947E1061E08AE06B
:101E30000E9445108CB580618CBD8CB580648CBDD2
:101E400061E08DE00E94451061E08BE00E9445104A
:101E50008091A5068F5F8093A506CFBFCF9108958F
:101E60002FB7F894882339F0813039F082E08093DD
:101E7000A40690E003C091E001C092E08091A30627
:101E8000892B8093A3068091A406811103C081E071
:101E90008093A4062FBF08951F920F920FB60F9242
:101EA00011242F933F938F939F93AF93BF93809170
:101EB000A7069091A806A091A906B091AA06309114
:101EC000A60623E0230F2D3720F40196A11DB11D96
:101ED00005C026E8230F0296A11DB11D2093A6067A
:101EE0008093A7069093A806A093A906B093AA068C
:101EF0008091AB069091AC06A091AD06B091AE0674
:101F00000196A11DB11D8093AB069093AC06A093E2
:101F1000AD06B093AE06BF91AF919F918F913F9167
:101F20002F910F900FBE0F901F9018953FB7F89408
:101F30008091AB069091AC06A091AD06B091AE0633
:101F400026B5A89B05C02F3F19F00196A11DB11D14
:101F50003FBF6627782F892F9A2F620F711D811D31
:101F6000911D42E0660F771F881F991F4A95D1F790
:101F70000895CF92DF92EF92FF92CF93DF936B01A0
:101F80007C010E94960FEB01C114D104E104F1041D
:101F900089F00E94B4100E94960F6C1B7D0B683E66
:101FA000734090F381E0C81AD108E108F108C851E4
:101FB000DC4FEACFDF91CF91FF90EF90DF90CF9091
:101FC0000895789484B5826084BD84B5816084BDB1
:101FD00085B5826085BD85B5816085BDEEE6F0E0A2
:101FE000808181608083E1E8F0E0108280818260FE
:101FF0008083808181608083E0E8F0E0808181607F
:102000008083E1EBF0E0808184608083E0EBF0E0AE
:10201000808181608083EAE7F0E080818460808352
:1020200080818260808380818160808380818068FC
:1020300080831092C1000895833081F028F48130AC
:1020400099F08230A1F008958730A9F08830B9F076
:102050008430D1F4809180008F7D03C08091800016
:102060008F7780938000089584B58F7702C084B500
:102070008F7D84BD08958091B0008F7703C08091DB
:10208000B0008F7D8093B0000895CF93DF9390E0F0
:10209000FC01E255FB4F2491FC01EE53FB4F849170
:1020A000882349F190E0880F991FFC01E052FB4F13
:1020B000A591B4918A529B4FFC01C591D4919FB7D1
:1020C000611108C0F8948C91209582238C938881AB
:1020D00082230AC0623051F4F8948C91322F3095EB
:1020E00083238C938881822B888304C0F8948C91FD
:1020F000822B8C939FBFDF91CF9108950F931F93F5
:10210000CF93DF931F92CDB7DEB7282F30E0F901D0
:10211000E656FB4F8491F901E255FB4F1491F9010A
:10212000EE53FB4F04910023C9F0882321F069830B
:102130000E941C106981E02FF0E0EE0FFF1FEA52B1
:10214000FB4FA591B4919FB7F8948C91611103C096
:102150001095812301C0812B8C939FBF0F90DF913D
:10216000CF911F910F9108950895A1E21A2EAA1BF5
:10217000BB1BFD010DC0AA1FBB1FEE1FFF1FA21737
:10218000B307E407F50720F0A21BB30BE40BF50B34
:10219000661F771F881F991F1A9469F760957095BD
:1021A000809590959B01AC01BD01CF010895EE0F84
:1021B000FF1F0590F491E02D0994FB01DC0102C0A2
:1021C00005900D9241505040D8F70895FB01DC0175
:1021D00002C001900D9241505040D8F70895F894F4
:0221E000FFCF2F
:1021E200018000010800010200018000676F6F6634
:1021F2000000000000A504230DA102AE02D902F0E6
:1022020002203A00204500430020307800656E74B9
:1022120065726564206163692063616C6C626163ED
:102222006B206C6F6F70007370692068617320623D
:1022320065656E20736574757020666F72206E72AC
:1022420066383030310074696D657220636F6E6676
:10225200696720737461727465640074696D657274
:1022620020636F6E66696720636F6D706C6574655D
:102272006400696E746572727570747320636F6E38
:10228200666967207374617274656400696E74654F
:1022920072727570747320636F6E66696720636F04
:1022A2006D706C6574656400737069206861732079
:1022B2006265656E20736574757020666F72206149
:1022C20064373731350061646320636F6E66696716
:1022D2002073746172746564007761732073656E34
:1022E2007420746F20616437373135007761732051
:1022F200726561642066726F6D20616437373135B3
:102302000061646320636F6E66696720636F6D703E
:102312006C65746564006164632072656164207336
:1023220074617274656400696E746572727570743A
:102332002070617373656400696E74657272757082
:102342007420636F6D706C65746564004620412073
:102352004C20532045202041204C20412052204D2A
:102362000000000000B70B230D390B520B440B95F4
:022372000B005E
:00000001FF
