:100000000C9477020C942F0F0C94930A0C949F027B
:100010000C949F020C949F020C949F020C949F02DC
:100020000C949F020C94F40A0C949F020C949F026F
:100030000C949F020C949F020C949F020C949F02BC
:100040000C94AE0F0C949F020C94CA0C0C94FC0CF4
:100050000C949F020C949F020C949F020C949F029C
:100060000C949F020C949F02700344044404A40364
:10007000D003EF034404DD0344041A0444040604DB
:100080002004202050697065204572726F722043F1
:100090006F64653A203078004143492045767420EA
:1000A00050697065204572726F723A2050697065B0
:1000B00020233A0045767420436D64207265737086
:1000C0006F6E653A204572726F722E2041726475B0
:1000D000696E6F20697320696E20616E2077686990
:1000E0006C652831293B206C6F6F700041434920BB
:1000F000436F6D6D616E6420004572726F7220698E
:100100006E20414349205365747570000957726928
:1001100074696E67206F6E6520627974652030782F
:1001200000203078000957726974696E67206F7516
:100130007420746F2042544C453A000007060000BA
:10014000030241D700000000000000000000000092
:10015000000000000000000000000000001F06106A
:10016000000000000000000400040101000006007F
:1001700000900000000000000000000000001F06CA
:10018000101C010200000000000000000000000040
:100190000000000000140000001403900164001F20
:1001A00006103802FF0258000500000000000000A1
:1001B000000000001000000000000000000000002F
:1001C00005061054000000000000000000000000C0
:1001D000000000000000000000000000000000001F
:1001E000001F06200004040202000128000100187C
:1001F0000404050500022803010E0300002A04146C
:1002000007001F06201C0400032A00015541525418
:100210006963730404050500042803010205000155
:100220002A06001F06203804030200052A010100E7
:1002300000040405050006280301020700042A063D
:10024000040908001F06205400072A0401060012B2
:100250000000000A0004040202000828000101183E
:1002600004041010001F06207000092800019ECA17
:10027000DC240EE5A9E093F3A3B50100406E04046D
:100280001313000A28001F06208C0301040B009E94
:10029000CADC240EE5A9E093F3A3B50200406E4446
:1002A000101400000B00001F0620A802020000002E
:1002B000000000000000000000000000000000003E
:1002C0000004041313000C001F0620C428030110AF
:1002D0000D009ECADC240EE5A9E093F3A3B503004C
:1002E000406E14001400000D001F0620E000030201
:1002F00000000000000000000000000000000000FE
:10030000000000004614030200001F0620FC0E2916
:100310000201000004040202000F2800010A180470
:100320000405050010280301021100190621180018
:10033000272A0404090100112A27010A00000000ED
:100340000000000000000000000000001F06400048
:100350002A000100800400030000000202000804DB
:10036000000B0000000302000204000D000F064015
:100370001C000E2A2701008004001100000000006C
:100380000000000000000000000000000000130654
:1003900050009ECADC240EE5A9E093F3A3B500004B
:1003A000406E000000000000000000000000000F90
:1003B00006600000000000000000000000000000D7
:1003C000000000000000000000000000000000002D
:1003D0000606F00003D388000000000000000000C3
:1003E000000000000000000000000000000000000D
:1003F000436D642051756575652046756C6C000011
:100400002C2000416461667275697420426C7565C8
:100410006672756974204C6F7720456E65726779D6
:10042000206E5246383030312043616C6C6261631B
:100430006B204563686F2064656D6F00205D002050
:100440005B002062797465733A20005265636569C8
:100450007665642000446973636F6E6E65637465CE
:1004600064206F72206164766572746973696E6767
:100470002074696D6564206F757400436F6E6E65DE
:100480006374656421004164766572746973696E92
:1004900067207374617274656400000000080002D4
:1004A000010000030407000000000000000001023A
:1004B00004081020408001020408102001020408F2
:1004C00010200404040404040404020202020202D0
:1004D00003030303030300000000250028002B0092
:1004E00000000000240027002A007E0B2C0D1124A0
:1004F0001FBECFEFD8E0DEBFCDBF12E0A0E0B1E07D
:10050000E6EAF2E202C005900D92A837B107D9F7EA
:1005100026E0A8E7B2E001C01D92A839B207E1F7D2
:1005200014E0CEEED4E004C02297FE010E943B11FD
:10053000CA3ED107C9F70E946F0B0C9451110C945D
:10054000000080917E0290917F0220917C02309188
:100550007D02821B930B8F739927089520917E0251
:1005600030917F0280917C0290917D02281739079B
:10057000E9F0E0917C02F0917D02E058FD4F80812E
:1005800020917C0230917D022F5F3F4F30937D029E
:1005900020937C0220917C0230917D022F733327BF
:1005A00030937D0220937C0290E008958FEF9FEFBF
:1005B000089520917E0230917F0280917C0290917B
:1005C0007D022817390749F0E0917C02F0917D0205
:1005D000E058FD4F808190E008958FEF9FEF0895E0
:1005E000089520E030E050E02417350704F58091AD
:1005F0007E0290917F0201968F739927E0917C0291
:10060000F0917D028E179F0779F0E0917E02F091C4
:100610007F02DB01A20FB31FAC91E058FD4FA08316
:1006200090937F0280937E022F5F3F4FDDCF08952E
:100630000F931F93CF93DF93FC01522F13821282EB
:1006400008EE13E020E030E004831583268337832F
:1006500085E191E09183808381E0808B60937A02D1
:100660004093790250937B0217861686158614866E
:10067000DF01559688E0ED0119928A95E9F710920D
:100680007D0210927C0210927F0210927E0286E818
:10069000858FDF91CF911F910F910895FC01758790
:1006A00064870895FC01778766870895CF93DF9369
:1006B000EC0161EC72E083EE92E00E94260988234F
:1006C00009F4E2C04091C30250E0FA01E158F10997
:1006D000ED30F10508F0D8C0EC5CFF4F0C943911F7
:1006E0008091C6028093EA028091C402823019F0A0
:1006F0008330A1F0C9C083EE92E00E9456050297B4
:1007000009F4C2C08889882309F4BEC069EF70E08B
:100710008AEE95E0DF91CF910C94EF0D8D898823BF
:1007200009F464C0AE014B5E5F4FFA0101900020F6
:10073000E9F79F0121503109241B350B61E083EE5D
:1007400092E00E94860852C08091C5028823C9F0B9
:100750008889811101C0FFCF6CEE70E08AEE95E0D0
:100760000E94AD0D40E150E06091C4028AEE95E038
:100770000E94D20E64EB70E08AEE95E00E94EF0DCD
:10078000EACF8091C402893009F07EC029E046ECAE
:1007900052E064E083EE92E0DF91CF910C94860802
:1007A0008091EA028093ED020E947E0885E88D8F99
:1007B000EC85FD85309709F0099563E083EE92E0C2
:1007C0000E942508882309F45FC08091C00281112E
:1007D0005BC00E941E0981E08093C00255C086E87C
:1007E0008D8FEC85FD85309709F009956B897C89A3
:1007F00089899A890E94C10881E88D8FEC85FD85E1
:10080000309709F441C0DF91CF9109944091C20221
:10081000425065EC72E0CE010E94F102EE85FF8548
:10082000309791F16091C202625085EC92E0DF91C5
:10083000CF9109948091C4029091ED02890F22C05A
:1008400088898823E1F068E970E08AEE95E00E94EB
:10085000AD0D4AE050E06091C4028AEE95E00E943E
:10086000CB0E62E870E08AEE95E00E94AD0D40E1AB
:1008700050E06091C5028AEE95E00E94D20E809110
:10088000ED028F5F8093ED02DF91CF910895CF92BB
:10089000DF92EF92FF920F931F93CF93DF937C0130
:1008A0008B01D42E65E271E08AEE95E00E94AD0DD9
:1008B000C02EC02FD12F8C2F8C198D1570F461E2B2
:1008C00071E08AEE95E00E94AD0D699140E150E043
:1008D0008AEE95E00E94CB0EEECF8AEE95E00E9464
:1008E000DB0DC0E0DD2021F163E083EE92E00E94A9
:1008F0002508811104C0C7010E945603F3CFDD2DE6
:1009000084E18D1508F4D4E14D2FB8016C0F711DF1
:1009100083E00E94DD088091ED0281508093ED021A
:1009200063E270E080E090E00E941B10DD1A59F451
:100930008C2F90E0DF91CF911F910F91FF90EF905E
:10094000DF90CF900895CD0FCDCF0F931F93CF930E
:10095000DF931F92CDB7DEB78C0169836CE071E045
:100960008AEE95E00E94AD0D40E150E069818AEE8B
:1009700095E00E94D20E63E083EE92E00E9425088B
:100980008823A9F041E0BE016F5F7F4F83E00E94A2
:10099000DD088091ED0281508093ED0263E270E00A
:1009A00080E090E00E941B1081E090E005C0C8014B
:1009B0000E94560380E090E00F90DF91CF911F914D
:1009C0000F910895FC01728B618B548B438B80E0F7
:1009D00091E09093E4028093E30284E08093E50247
:1009E0008BE391E09093E7028093E60285E18093A8
:1009F000E80283EE92E00E94360881E00895CF92EB
:100A0000DF92EF92FF920F931F93CF93DF938C01AE
:100A1000C62E81E2489F70011124C0E0D0E0D12CA5
:100A2000DC1411F1CE018E0D9F1DF80163817481DC
:100A3000680F791FFB013196449150E04E5F5F4F84
:100A400085E093E00E943F1185E093E00E94DE067E
:100A5000A196811107C060EF73E08AEE95E00E94D5
:100A6000EF0D19C0D394DCCFC0E066E273E0C8019B
:100A70000E9426098823C9F3CF5F80912803843818
:100A800051F480912A039FEF980F923010F4CC120A
:100A9000ECCF90E002C081E890E0DF91CF911F9110
:100AA0000F91FF90EF90DF90CF9008950F931F93D9
:100AB000CF93DF93EC016D81693028F000E010E006
:100AC00088E890E002C040E015C06D81262F269591
:100AD00026952695121740F4402F68E0CE010E941B
:100AE000FF041F5F085FF1CF677059F0412F440F7B
:100AF000440F440FCE01DF91CF911F910F910C94C1
:100B0000FF04DF91CF911F910F91089521E0FC0127
:100B1000208329E02183089522E0240FDC012C9317
:100B20002DE011962C931197FB01219112962C9395
:100B300050E0BF0103960C944811FC01DB0185E0F5
:100B400080838FE0818311968C91119783838C91A0
:100B5000828313968C911397858312968C9184834C
:100B6000089522E0240FDC012C9325E111962C93AB
:100B70001197FB01219112962C9350E0BF0103962F
:100B80000C94481121E0FC01208323E12183089586
:100B900010925C05FC01E85FFE4F108231961082D6
:100BA000E4E5F4E0DF0111971C921082B19685E034
:100BB000EC35F807B9F708950F931F93CF93DF93A0
:100BC000EC0109814AE050E0602F8AEE95E00E9436
:100BD000CB0E61E271E08AEE95E00E94D20D10E04A
:100BE000FE01E10FF11D40E150E061818AEE95E0E8
:100BF0000E94CB0E60E074E08AEE95E00E94AD0D9D
:100C00001F5F011768F76FEF73E08AEE95E0DF91E1
:100C1000CF911F910F910C94EF0D8EBD00000DB47C
:100C200007FEFDCF8EB5089590917902923019F0AC
:100C3000933019F01BC020E001C021E03DB38823B0
:100C400051F081E090E0022E01C0880F0A94EAF78B
:100C5000382B3DBB089581E090E0022E01C0880F43
:100C60000A94EAF7809583238DBB0895FFCF0F93F5
:100C70001F93CF93DF93EC01F894009151041091EE
:100C800050047894E091500480915104E81761F188
:100C900091E29E9FF0011124E85BFC4FDE01019080
:100CA0000D929A95E1F72091500430E02F5F3F4F6D
:100CB000277033272093500480915C05882349F0E6
:100CC00064E271E08AEE95E00E94D20DCE010E94AE
:100CD000DC05802F90E0019687709927181306C0D5
:100CE00081E00E94140602C080E001C081E0DF9133
:100CF000CF911F910F91089510925E050E945C0F95
:100D000082E594E00E94C80588E493E00E94C8054B
:100D100061E080917B020E94A71062E080917902DD
:100D20000E94A71061E080917A020E94A71061E002
:100D300080917B020E94E01064E670E080E090E029
:100D40000E941B1060E080917B020E94E01061E035
:100D500080917B020E94E01060E08DE00E94E01034
:100D600060E08BE00E94E01061E080917A020E94D6
:100D7000E01060E08DE00E94E0108FEF8093780239
:100D800080917902823019F41092780205C0833084
:100D900019F481E0809378026EE170E080E090E0E9
:100DA0000E941B10809178020E94920F40E050E058
:100DB00061EE77E0809178020C94FF0E0F931F9301
:100DC000CF93DF938C01FC0141814032C0F520912B
:100DD0005B0530E0E9012196C770DD2780915A0557
:100DE0008C17C1F051E2529FC001539F900D112406
:100DF000FC01EE5AFB4F108250E04F5F5F4FB8018D
:100E00006F5F7F4F8D5A9B4F0E944811C0935B05C7
:100E1000C1E001C0C0E080915C05882349F067E231
:100E200071E08AEE95E00E94D20DC8010E94DC05B7
:100E300060E080917A020E94E0108C2F01C080E077
:100E4000DF91CF911F910F910895CF92DF92EF9292
:100E5000FF920F931F93CF93DF93CDB7DEB7A29787
:100E60000FB6F894DEBF0FBECDBF80918D068823EC
:100E700099F09FB7F89480918D06813059F48DB325
:100E800080938B062DB380918C06809582238DBB39
:100E90009FBF02C090938B0681E78CBD81E08DBD22
:100EA00060E080917A020E94E01080915A05909152
:100EB0005B05891709F472C090E021E2289FF001D8
:100EC000299FF00D1124EE5AFB4FDE01119601907F
:100ED0000D922A95E1F701968770992780935A051C
:100EE0001A81812F0E940D0680935D058B810E94DF
:100EF0000D0680935E05112349F0412F50E0282F05
:100F000030E02417350714F48FEF810F982F8032CB
:100F100008F09FE17E0184E0E80EF11C8FE5C82E09
:100F200085E0D82E8601802F8C19891758F4F70197
:100F300081917F019AA30E940D06F80181938F0190
:100F40009AA1F1CF61E080917A020E94E010809135
:100F50008D06882361F09FB7F89420918D068091CB
:100F60008B06213019F48DBB9FBF01C08FBF83B7A3
:100F7000816083BF40E050E061EE77E080917802CD
:100F80000E94FF0E90915A0580915B05981741F0E1
:100F900060E080917A020E94E01002C01A82A0CF25
:100FA0008DE595E0A2960FB6F894DEBF0FBECDBFDB
:100FB000DF91CF911F910F91FF90EF90DF90CF9035
:100FC0000895CF93DF9383B78E7F83BF809178029C
:100FD0000E941F0F0E942507FC014181442391F1CB
:100FE0006091510470E0EB012196C770DD272091DC
:100FF00050042C1731F151E2569F9001579F300D4C
:101000001124F901E85BFC4F108250E04F5F5F4F05
:10101000BC016F5F7F4FC901875B9C4F0E944811E5
:10102000C0935104F894809151048F5F8770909120
:1010300050047894891306C080E0DF91CF910C941E
:101040001406FFCFDF91CF910895262F2695269580
:101050002695820F911DFC01818990E0677002C086
:10106000959587956A95E2F781700895CF93DF9300
:10107000FC01AFE7B5E080E090E0EF01C80FD91FB9
:10108000198A198E1D92019688309105B1F7109238
:101090008C0510928B0510928A05109289058FEFAE
:1010A0008093940580939305809392051092900508
:1010B00010928F0510928E0510928D051092880562
:1010C0001092870510927E05109296051092950554
:1010D000808191819093BD058093BC05828180932E
:1010E000BB05838194819093BA058093B90585816E
:1010F0008093B805DF91CF910C947C0688E995E048
:101100000E94860587E995E00C94DE06CF93DF9375
:10111000CDB7DEB766970FB6F894DEBF0FBECDBF72
:10112000CA01E091BC05F091BD0533E0639FE00D7D
:10113000F11D1124339730813130C9F42531B8F4D1
:101140006983422F50E0BC01CE0102962E8B0E9493
:1011500048112E89422FBE016F5F7F4F88E995E0CD
:101160000E948C0587E995E00E94DE0601C080E0C0
:1011700066960FB6F894DEBF0FBECDBFDF91CF915C
:101180000895CF93DF9300D000D0CDB7DEB79A8318
:1011900089837C836B83BE016F5F7F4F88E995E015
:1011A0000E949D0587E995E00E94DE060F900F9052
:1011B0000F900F90DF91CF9108951F93CF93DF93FE
:1011C000CDB7DEB765970FB6F894DEBF0FBECDBFC3
:1011D000142FE091BC05F091BD0593E0899FE00DCF
:1011E000F11D11243397218132812230310519F00C
:1011F00024303105C1F41531B0F48983412F50E01A
:10120000CE0102960E944811412FBE016F5F7F4FB1
:1012100088E995E00E94B1051092910587E995E073
:101220000E94DE0601C080E065960FB6F894DEBF2E
:101230000FBECDBFDF91CF911F91089588E995E052
:101240000E94C20587E995E00C94DE060F931F9378
:10125000CF93DF93EC018B01CB010E943706F8019D
:101260009281983839F0993851F19638A9F520E0F3
:1012700030E017C020E030E00F5F1F4FD801A20F11
:10128000B31F12969C911297FE01E20FF31F918BF0
:101290001A969C91918F2F5F3F4F2830310571F73F
:1012A0001BC0FE01E20FF31F118A118E2F5F3F4F0B
:1012B00028303105B1F719A29F819A870DC0F80136
:1012C000238134813C872B87258136813E872D877A
:1012D00027813085388B2F87DF91CF911F910F9118
:1012E0000895DF92EF92FF920F931F93CF93DF93B6
:1012F000EC01D62E6BE474E08AEE95E00E94AD0D11
:101300004AE050E06D2D8AEE95E00E94CB0E62E43B
:1013100074E08AEE95E00E94AD0D8E01ED2CF12C6B
:10132000C8018C1B9D0B8E159F0544F4F80161913B
:101330008F018AEE95E00E94D40DF2CF6FE374E046
:101340008AEE95E00E94AD0D8E01C8018C1B9D0BAD
:101350008E159F05A4F469E271E08AEE95E00E9483
:10136000D20DF80181918F01682F772767FD709565
:1013700040E150E08AEE95E00E94B60EE6CF6CE3C5
:1013800074E08AEE95E00E94EF0D4D2DBE018EEBCC
:1013900095E0DF91CF911F910F91FF90EF90DF903B
:1013A0000C944704853839F0863841F0813861F46F
:1013B00066E874E005C06BE774E002C065E574E0C0
:1013C0008AEE95E00C94EF0D08958CB580628CBD8B
:1013D000089508959CB5937F982B9CBD08952CB5D6
:1013E000982F93702C7F922B9CBD9DB582FB8827F4
:1013F00080F99E7F982B9DBD08955D982A9A8CB5A3
:101400008F7D8CBD80E00E94EA0985E00E94EF0993
:101410006DE271E08AEE95E00C94010E8EEB95E0A2
:101420000C9456036BE471E08AEE95E00E94010E85
:101430001092B000E1EBF0E01082A0E7B0E08C91F8
:1014400081608C9380818460808360E671E08AEEA5
:1014500095E00C94010E67E771E08AEE95E00E943A
:10146000010E53985B9AE9E6F0E080818860808302
:10147000E99A61E971E08AEE95E00C94010E813001
:10148000910519F0029789F008955D9A2A980E94B3
:10149000E50980E00E94EA0985E00E94EF096DEA13
:1014A00071E08AEE95E00E94010E0C94FD096CEC4F
:1014B00071E08AEE95E00E94010E559A229A0E94F0
:1014C000FD0988E08093E1050E940D0690E090936D
:1014D000E0058093DF054AE050E06091E1058AEE87
:1014E00095E00E94D20E6FED71E08AEE95E00E94C9
:1014F000010E6091DF057091E0054AE050E08AEE50
:1015000095E00E94E90E62EF71E08AEE95E00E949C
:10151000010E81E090E00E943F0A67E072E08AEEEF
:1015200095E00C94010E1F920F920FB60F921124AA
:101530002F933F934F935F936F937F938F939F93DB
:10154000AF93BF93EF93FF934091E6055091E7056A
:101550006091E8057091E9058091E2059091E305BD
:10156000A091E405B091E50588539F4FAF4FBF4F61
:1015700084179507A607B70700F56DE272E08AEEBB
:1015800095E00E94010E45E06CE071E08EEB95E085
:101590000E9447048091E6059091E705A091E80537
:1015A000B091E9058093E2059093E305A093E405EB
:1015B000B093E5056EE372E002C062E572E08AEE88
:1015C00095E00E94010EFF91EF91BF91AF919F9125
:1015D0008F917F916F915F914F913F912F910F90DC
:1015E0000FBE0F901F9018951F920F920FB60F927B
:1015F00011248F939F93AF93BF938091E6059091B1
:10160000E705A091E805B091E9050196A11DB11D7E
:101610008093E6059093E705A093E805B093E9056C
:10162000BF91AF919F918F910F900FBE0F901F9020
:1016300018951092850010928400A0E8B0E01C92EA
:10164000E1E8F0E0108287E090E0909389008093D9
:1016500088008C9180648C938081886080838081F5
:1016600081608083219A089526E040E855E260E099
:1016700070E08AEE95E00E94680C63E074E08AEE08
:1016800095E00E94EF0D61E779E08EEB95E00E9416
:10169000520362ED79E08EEB95E00E944E031092CA
:1016A000E6051092E7051092E8051092E905109200
:1016B000E2051092E3051092E4051092E50540E57D
:1016C00050E060E070E08EEB95E00E94E2040E9442
:1016D0002B0A0E94120A0E94190B0C94570A0E94AE
:1016E00043100E94E9090E94340BC2EBDBE00E9428
:1016F0000E0A2097E1F30E94B20BF9CF27E042E0F7
:101700006AE08EEB95E00C941803FC01818D228D2C
:1017100090E0805C9F4F821B91098F7399270895F9
:10172000FC01918D828D981731F0828DE80FF11DAB
:10173000858D90E008958FEF9FEF0895FC01918DC6
:10174000828D981761F0828DDF01A80FB11D5D9623
:101750008C91928D9F5F9F73928F90E008958FEF91
:101760009FEF089582E29DE0892B49F080E090E0B0
:10177000892B29F00E94220D81110C9400000895FC
:10178000FC01848DDF01A80FB11DA35ABF4F2C911E
:10179000848D90E001968F739927848FA689B789ED
:1017A0002C93A089B1898C9180648C93938D848DC6
:1017B000981306C00288F389E02D80818F7D808395
:1017C0000895CF93DF93EC01888D8823C9F0EA89CF
:1017D000FB89808185FD05C0A889B9898C9186FD2A
:1017E0000FC00FB607FCF5CF808185FFF2CFA88927
:1017F000B9898C9185FFEDCFCE010E94C00BE7CF58
:10180000DF91CF910895CF92DF92FF920F931F93B4
:10181000CF93DF931F92CDB7DEB76C01DC015B96EF
:101820009C915B975C968C915C97981307C050963F
:10183000ED91FC915197808185FD32C0F601038DB9
:1018400010E00F5F1F4F0F731127F02EF601848DEC
:10185000F81211C00FB607FCF9CFD6015096ED91E2
:10186000FC915197808185FFF1CFC60169830E9469
:10187000C00B6981EBCF838DE80FF11DE35AFF4F59
:101880006083D6015B960C935B975296ED91FC9129
:10189000539780818062808381E058968C930DC03D
:1018A000D6015696ED91FC91579760835096ED9135
:1018B000FC91519780818064808381E090E00F905B
:1018C000DF91CF911F910F91FF90DF90CF900895FE
:1018D000BF92CF92DF92EF92FF92CF93DF93EC0112
:1018E0006A017B01B22EE889F98982E08083411583
:1018F00081EE580761057105A1F060E079E08DE3A4
:1019000090E0A70196010E94171121503109410969
:1019100051095695479537952795211580E1380748
:1019200098F0E889F989108260E874E88EE190E027
:10193000A70196010E94171121503109410951094F
:101940005695479537952795EC85FD853083EE852F
:10195000FF852083188EEC89FD89B082EA89FB8996
:10196000808180618083EA89FB89808188608083AF
:10197000EA89FB89808180688083EA89FB8980818C
:101980008F7D8083DF91CF91FF90EF90DF90CF909C
:10199000BF9008951F920F920FB60F9211242F93AC
:1019A0008F939F93EF93FF93E091FA05F091FB05DE
:1019B0008081E0910006F091010682FD12C09081C5
:1019C000809103068F5F8F7320910406821751F078
:1019D000E0910306F0E0E651FA4F958F80930306FD
:1019E00001C08081FF91EF919F918F912F910F9076
:1019F0000FBE0F901F9018951F920F920FB60F9267
:101A000011242F933F934F935F936F937F938F9303
:101A10009F93AF93BF93EF93FF938AEE95E00E945D
:101A2000C00BFF91EF91BF91AF919F918F917F91EB
:101A30006F915F914F913F912F910F900FBE0F903B
:101A40001F9018958AEE95E00E94850B21E0892B66
:101A500009F420E0822F08951092ED051092EC0514
:101A600088EE93E0A0E0B0E08093EE059093EF0560
:101A7000A093F005B093F1058BE692E09093EB050F
:101A80008093EA0585EC90E09093F7058093F60546
:101A900084EC90E09093F9058093F80580EC90E059
:101AA0009093FB058093FA0581EC90E09093FD05FF
:101AB0008093FC0582EC90E09093FF058093FE05F7
:101AC00086EC90E090930106809300061092030646
:101AD0001092040610920506109206060895CF9201
:101AE000DF92EF92FF920F931F93CF93DF936C01DE
:101AF0007A01EB01E60EF71E00E010E0CE15DF05DF
:101B000061F06991D601ED91FC910190F081E02D99
:101B1000C6010995080F191FF1CFC801DF91CF91B8
:101B20001F910F91FF90EF90DF90CF900895611576
:101B3000710581F0DB010D900020E9F7AD01415006
:101B40005109461B570BDC01ED91FC910280F3819A
:101B5000E02D099480E090E00895EF92FF920F93BA
:101B60001F93CF93DF938C01FB01C0E0D0E0649121
:101B70007F018FEFE81AF80A662361F0D801ED9132
:101B8000FC910190F081E02DC8010995C80FD91F83
:101B9000F701EDCFCE01DF91CF911F910F91FF9013
:101BA000EF9008950C94970DDC01ED91FC9101905C
:101BB000F081E02D09940F931F93CF93DF93EC01F5
:101BC0006DE00E94D40D8C016AE0CE010E94D40D1C
:101BD000800F911FDF91CF911F910F9108950F9367
:101BE0001F93CF93DF93EC010E94AD0D8C01CE01CA
:101BF0000E94DB0D800F911FDF91CF911F910F91FC
:101C000008950F931F93CF93DF93EC010E94970DDC
:101C10008C01CE010E94DB0D800F911FDF91CF91CF
:101C20001F910F9108958F929F92AF92BF92CF9282
:101C3000DF92EF92FF920F931F93CF93DF93CDB775
:101C4000DEB7A1970FB6F894DEBF0FBECDBF7C0103
:101C5000C42EE52FCB01D22E19A221E02D1510F0B4
:101C60002AE0D22E8E010F5D1F4F8D2C912CA12CBE
:101C7000B12C6C2D7E2FA50194010E9417118C2D83
:101C8000D29E80191124015011098A3014F4805D0C
:101C900001C0895CF801808321153105410551059A
:101CA00021F0C22EE32FCA01E4CFB801C7010E9480
:101CB000970DA1960FB6F894DEBF0FBECDBFDF9192
:101CC000CF911F910F91FF90EF90DF90CF90BF9039
:101CD000AF909F908F900895CF92DF92EF92FF92F6
:101CE0000F931F93CF93DF93EC016A017B012115C2
:101CF000310579F4E881F9810190F081E02D642FBC
:101D0000DF91CF911F910F91FF90EF90DF90CF90D7
:101D100009942A303105E9F477FF1AC06DE20E9478
:101D2000D40D8C0144275527BA014C195D096E0961
:101D30007F092AE0CE010E94130E800F911FDF91D0
:101D4000CF911F910F91FF90EF90DF90CF9008956A
:101D50002AE0B701A601CE01DF91CF911F910F912B
:101D6000FF90EF90DF90CF900C94130E9A01AB018F
:101D7000662757FD6095762F0C946C0E2115310562
:101D800041F4DC01ED91FC910190F081E02D642F94
:101D900009940C94130E9A01462F50E060E070E015
:101DA0000C94BE0E0F931F93CF93DF93EC019A0117
:101DB000462F50E060E070E00E94BE0E8C01CE0124
:101DC0000E94DB0D800F911FDF91CF911F910F912A
:101DD00008950F931F93CF93DF93EC019A01AB010A
:101DE00060E070E00E94BE0E8C01CE010E94DB0D0F
:101DF000800F911FDF91CF911F910F910895823035
:101E0000E8F4E82FF0E0EE0FFF1FE957F94F718378
:101E10006083813041F0809169008C7F842B8093B6
:101E20006900E89A089580916900440F551F440F96
:101E3000551F837F842B80936900E99A089582302F
:101E400068F4813011F0E89801C0E998E82FF0E0DB
:101E5000EE0FFF1FE957F94F1182108208951F926C
:101E60000F920FB60F9211242F933F934F935F93CE
:101E70006F937F938F939F93AF93BF93EF93FF9352
:101E80008091870690918806892B29F0E09187063A
:101E9000F09188060995FF91EF91BF91AF919F91C5
:101EA0008F917F916F915F914F913F912F910F9003
:101EB0000FBE0F901F901895CF93CFB7F8948091D5
:101EC0008E06811127C0ECECF4E08491E8EBF4E09D
:101ED0009491E82FF0E0EE0FFF1FE052FB4FA59129
:101EE000B4918C91892321F461E08AE00E94E01092
:101EF00061E08AE00E94A7108CB580618CBD8CB532
:101F000080648CBD61E08DE00E94A71061E08BE0F1
:101F10000E94A71080918E068F5F80938E06CFBFA0
:101F2000CF9108952FB7F894882339F0813039F094
:101F300082E080938D0690E003C091E001C092E0C2
:101F400080918C06892B80938C0680918D0681115F
:101F500003C081E080938D062FBF08951F920F92DA
:101F60000FB60F9211242F933F938F939F93AF93AC
:101F7000BF938091900690919106A0919206B091A6
:101F8000930630918F0623E0230F2D3720F401961E
:101F9000A11DB11D05C026E8230F0296A11DB11D8C
:101FA00020938F068093900690939106A0939206BB
:101FB000B09393068091940690919506A091960611
:101FC000B09197060196A11DB11D80939406909340
:101FD0009506A0939606B0939706BF91AF919F91F7
:101FE0008F913F912F910F900FBE0F901F901895DA
:101FF0003FB7F8948091940690919506A09196062B
:10200000B091970626B5A89B05C02F3F19F0019601
:10201000A11DB11D3FBF6627782F892F9A2F620F10
:10202000711D811D911D42E0660F771F881F991F4A
:102030004A95D1F70895CF92DF92EF92FF92CF9316
:10204000DF936B017C010E94F80FEB01C114D104F6
:10205000E104F10489F00E9416110E94F80F6C1B34
:102060007D0B683E734090F381E0C81AD108E10807
:10207000F108C851DC4FEACFDF91CF91FF90EF908C
:10208000DF90CF900895789484B5826084BD84B544
:10209000816084BD85B5826085BD85B5816085BD63
:1020A000EEE6F0E0808181608083E1E8F0E010827C
:1020B000808182608083808181608083E0E8F0E0BD
:1020C000808181608083E1EBF0E0808184608083A7
:1020D000E0EBF0E0808181608083EAE7F0E08081DE
:1020E000846080838081826080838081816080833E
:1020F0008081806880831092C1000895833081F0D0
:1021000028F4813099F08230A1F008958730A9F049
:102110008830B9F08430D1F4809180008F7D03C085
:10212000809180008F7780938000089584B58F77A9
:1021300002C084B58F7D84BD08958091B0008F77F3
:1021400003C08091B0008F7D8093B0000895CF933D
:10215000DF9390E0FC01E255FB4F2491FC01EE532C
:10216000FB4F8491882349F190E0880F991FFC016F
:10217000E052FB4FA591B4918A529B4FFC01C5914F
:10218000D4919FB7611108C0F8948C912095822357
:102190008C93888182230AC0623051F4F8948C9128
:1021A000322F309583238C938881822B888304C0BF
:1021B000F8948C91822B8C939FBFDF91CF910895DF
:1021C0000F931F93CF93DF931F92CDB7DEB7282FC6
:1021D00030E0F901E656FB4F8491F901E255FB4FDF
:1021E0001491F901EE53FB4F04910023C9F08823A9
:1021F00021F069830E947E106981E02FF0E0EE0FEC
:10220000FF1FEA52FB4FA591B4919FB7F8948C91B0
:10221000611103C01095812301C0812B8C939FBF56
:102220000F90DF91CF911F910F9108950895A1E232
:102230001A2EAA1BBB1BFD010DC0AA1FBB1FEE1F40
:10224000FF1FA217B307E407F50720F0A21BB30B8B
:10225000E40BF50B661F771F881F991F1A9469F707
:1022600060957095809590959B01AC01BD01CF0163
:102270000895EE0FFF1F0590F491E02D0994FB01E6
:10228000DC0102C005900D9241505040D8F70895EE
:10229000FB01DC0102C001900D9241505040D8F783
:0622A0000895F894FFCF41
:1022A600018000010800010200018000676F6F666F
:1022B6000000000000A5046F0DA102AE02D902F0D5
:1022C60002203A00204500430020307800737069F0
:1022D60020686173206265656E2073657475702071
:1022E600666F72206164373731350074696D6572C7
:1022F60020636F6E6669672073746172746564002B
:1023060074696D657220636F6E66696720636F6DB1
:10231600706C6574656400696E746572727570744C
:102326007320636F6E666967207374617274656487
:1023360000696E746572727570747320636F6E6671
:10234600696720636F6D706C65746564007370698E
:1023560020686173206265656E20736574757020F0
:10236600666F72206E7266383030310061646320A9
:10237600636F6E6669672073746172746564007753
:1023860061732073656E7420746F20616437373112
:10239600350077617320726561642066726F6D2007
:1023A6006164373731350061646320636F6E666937
:1023B6006720636F6D706C6574656400616463208B
:1023C60072656164207374617274656400696E7409
:1023D6006572727570742070617373656400696EDE
:1023E6007465727275707420636F6D706C65746558
:1023F6006400462041204C20532045202041204C9B
:1024060020412052204D0000000000030C6F0D8576
:082416000B9E0B900BE10B0083
:00000001FF
