:100000000C94B2020C94AB0F0C94D10B0C94DA024A
:100010000C94DA020C94DA020C94DA020C94DA02F0
:100020000C94DA020C94E90A0C94DA020C94DA02C9
:100030000C94DA020C94DA020C94DA020C94DA02D0
:100040000C942A100C94DA020C945C0D0C948E0D16
:100050000C94DA020C94DA020C94DA020C94DA02B0
:100060000C94DA020C94DA02AB037F047F04DF0302
:100070000B042A047F0418047F0455047F04410400
:100080005B04202050697065204572726F722043B6
:100090006F64653A203078004143492045767420EA
:1000A00050697065204572726F723A2050697065B0
:1000B00020233A0045767420436D64207265737086
:1000C0006F6E653A204572726F722E2041726475B0
:1000D000696E6F20697320696E20616E2077686990
:1000E0006C652831293B206C6F6F700041434920BB
:1000F000436F6D6D616E6420004572726F7220698E
:100100006E20414349205365747570000957726928
:1001100074696E67206F6E6520627974652030782F
:1001200000203078000957726974696E67206F7516
:100130007420746F2042544C453A000007060000BA
:100140000302420700000000000000000000000061
:10015000000000000000000000000000001F06106A
:10016000000000000000000500050101000006007D
:1001700000900000000000000000000000001F06CA
:10018000101C010200000000000000000000000040
:1001900000000000001400000014039001FF001F85
:1001A000061038FFFF0258000500000000000000A4
:1001B000000000001000000000000000000000002F
:1001C00005061054000000000000000000000000C0
:1001D000000000000000000000000000000000001F
:1001E000001F06200004040202000128000100187C
:1001F0000404050500022803010E0300002A04146C
:1002000007001F06201C0400032A00015541525418
:100210006963730404050500042803010205000155
:100220002A06001F06203804030200052A010100E7
:1002300000040405050006280301020700042A063D
:10024000040908001F06205400072A0401060012B2
:100250000000000A0004040202000828000101183E
:1002600004041010001F06207000092800019ECA17
:10027000DC240EE5A9E093F3A3B50100406E04046D
:100280001313000A28001F06208C0301040B009E94
:10029000CADC240EE5A9E093F3A3B50200406E4446
:1002A000101400000B00001F0620A802020000002E
:1002B000000000000000000000000000000000003E
:1002C0000004041313000C001F0620C428030110AF
:1002D0000D009ECADC240EE5A9E093F3A3B503004C
:1002E000406E14001400000D001F0620E000030201
:1002F00000000000000000000000000000000000FE
:10030000000000004614030200001F0620FC0E2916
:100310000201000004041313000F28030110100051
:100320009ECADC240EE5A9E093F3001F062118A362
:10033000B50400406E140014000010000402000018
:100340000000000000000000000000001F06213433
:100350000000000000000046140302001129020101
:1003600000000404020200122800010A001F0621F6
:100370005018040405050013280301021400272A5D
:100380000404090100142A27010A000000000906DC
:10039000216C0000000000000000000000000000D0
:1003A0000000000000000000000000000000001F2E
:1003B0000640002A00010080040003000000020241
:1003C000000804000B0000000302000204000D00FE
:1003D0001906401C000E0004020002040010001167
:1003E0002A27010080040014000000000000000023
:1003F00000130650009ECADC240EE5A9E093F3A387
:10040000B50000406E000000000000000000000089
:100410000000120660000000000000000000000064
:1004200000000000000000000000000000000000CC
:100430000000000606F00003185D00000000000048
:1004400000000000000000000000000000000000AC
:10045000000000436D642051756575652046756C1C
:100460006C00002C200053797374656D20736574E3
:10047000757020636F6D706C6574650056656C6F88
:100480006D65747269637320656D6264782072753E
:100490006E6E696E672E2E2E005374617274696ED3
:1004A000672073797374656D2073657475702E2E73
:1004B0002E00205D00205B002062797465733A2075
:1004C0000052656365697665642000446973636FF3
:1004D0006E6E6563746564206F7220616476657208
:1004E000746973696E672074696D6564206F7574D3
:1004F00000436F6E6E6563746564210041647665C8
:1005000072746973696E67207374617274656400D4
:1005100000000008000201000003040700000000C2
:1005200000000000010204081020408001020408BD
:10053000102001020408102004040404040404042C
:10054000020202020202030303030303000000008D
:10055000250028002B0000000000240027002A00AE
:10056000100CBE0D11241FBECFEFD8E0DEBFCDBFF3
:1005700012E0A0E0B1E0E2EFF3E202C005900D92DC
:10058000AE32B107D9F726E0AEE2B2E001C01D926B
:10059000A935B207E1F715E0C4E6D5E004C022971B
:1005A000FE010E94B711C036D107C9F70E94C20BE5
:1005B0000C94F7110C940000809134029091350254
:1005C0002091320230913302821B930B8F73992753
:1005D0000895209134023091350280913202909139
:1005E000330228173907E9F0E0913202F091330223
:1005F000EA5CFD4F808120913202309133022F5FFF
:100600003F4F3093330220933202209132023091D7
:1006100033022F733327309333022093320290E05A
:1006200008958FEF9FEF08952091340230913502A5
:1006300080913202909133022817390749F0E091F6
:100640003202F0913302EA5CFD4F808190E0089520
:100650008FEF9FEF0895089520E030E050E02417D9
:10066000350704F5809134029091350201968F731D
:100670009927E0913202F09133028E179F0779F0AB
:10068000E0913402F0913502DB01A20FB31FAC916F
:10069000EA5CFD4FA08390933502809334022F5F74
:1006A0003F4FDDCF08950F931F93CF93DF93FC014E
:1006B000522F1382128208EE13E020E030E0048310
:1006C00015832683378383E191E09183808381E0E2
:1006D000808B6093300240932F0250933102178633
:1006E000168615861486DF01559688E0ED0119926D
:1006F0008A95E9F710923302109232021092350275
:100700001092340286E8858FDF91CF911F910F916F
:100710000895FC01758764870895FC0177876687D3
:100720000895CF93DF93EC0167E772E089E992E0E7
:100730000E946109882309F4E2C04091790250E0E7
:10074000FA01E158F109ED30F10508F0D8C0EC5C90
:10075000FF4F0C94B51180917C028093A002809190
:100760007A02823019F08330A1F0C9C089E992E0A1
:100770000E949105029709F4C2C08889882309F470
:10078000BEC069EF70E08BEA95E0DF91CF910C94E9
:10079000810E8D89882309F464C0AE014B5E5F4FE2
:1007A000FA0101900020E9F79F0121503109241B33
:1007B000350B61E089E992E00E94C10852C0809146
:1007C0007B028823C9F08889811101C0FFCF6CEEBC
:1007D00070E08BEA95E00E943F0E40E150E06091AE
:1007E0007A028BEA95E00E94640F64EB70E08BEA7A
:1007F00095E00E94810EEACF80917A02893009F05B
:100800007EC029E04CE752E065E089E992E0DF91A3
:10081000CF910C94C1088091A0028093A3020E9402
:10082000B90885E88D8FEC85FD85309709F009952D
:1008300064E089E992E00E946008882309F45FC0BF
:100840008091760281115BC00E94590981E08093FA
:10085000760255C086E88D8FEC85FD85309709F0CE
:1008600009956B897C8989899A890E94FC0881E8AD
:100870008D8FEC85FD85309709F441C0DF91CF91D4
:1008800009944091780242506BE772E0CE010E94D9
:100890002C03EE85FF85309791F1609178026250CC
:1008A0008BE792E0DF91CF91099480917A02909149
:1008B000A302890F22C088898823E1F068E970E0EB
:1008C0008BEA95E00E943F0E4AE050E060917A0288
:1008D0008BEA95E00E945D0F62E870E08BEA95E09C
:1008E0000E943F0E40E150E060917B028BEA95E070
:1008F0000E94640F8091A3028F5F8093A302DF9117
:10090000CF910895CF92DF92EF92FF920F931F93B2
:10091000CF93DF937C018B01D42E65E271E08BEAEB
:1009200095E00E943F0EC02EC02FD12F8C2F8C1926
:100930008D1570F461E271E08BEA95E00E943F0E44
:10094000699140E150E08BEA95E00E945D0FEECFA7
:100950008BEA95E00E946D0EC0E0DD2021F164E09D
:1009600089E992E00E946008811104C0C7010E94D9
:100970009103F3CFDD2D84E18D1508F4D4E14D2FE3
:10098000B8016C0F711D84E00E9418098091A302C8
:1009900081508093A30263E270E080E090E00E94C7
:1009A0009710DD1A59F48C2F90E0DF91CF911F91B1
:1009B0000F91FF90EF90DF90CF900895CD0FCDCFA6
:1009C0000F931F93CF93DF931F92CDB7DEB78C01A8
:1009D00069836CE071E08BEA95E00E943F0E40E194
:1009E00050E069818BEA95E00E94640F64E089E938
:1009F00092E00E9460088823A9F041E0BE016F5F89
:100A00007F4F84E00E9418098091A3028150809357
:100A1000A30263E270E080E090E00E94971081E022
:100A200090E005C0C8010E94910380E090E00F9023
:100A3000DF91CF911F910F910895FC01728B618B13
:100A4000548B438B80E091E090939A0280939902BB
:100A500085E080939B028BE391E090939D028093CD
:100A60009C0288E180939E0289E992E00E947108CD
:100A700081E00895CF92DF92EF92FF920F931F9340
:100A8000CF93DF938C01C62E81E2489F7001112421
:100A9000C0E0D0E0D12CDC1411F1CE018E0D9F1DF1
:100AA000F80163817481680F791FFB0131964491CD
:100AB00050E04E5F5F4F8BEB92E00E94BB118BEBDF
:100AC00092E00E941907A196811107C063E574E0C6
:100AD0008BEA95E00E94810E19C0D394DCCFC0E070
:100AE0006CED72E0C8010E9461098823C9F3CF5FF1
:100AF0008091DE02843851F48091E0029FEF980FDC
:100B0000923010F4CC12ECCF90E002C081E890E07B
:100B1000DF91CF911F910F91FF90EF90DF90CF90D9
:100B200008950F931F93CF93DF93EC016D8169308C
:100B300028F000E010E088E890E002C040E015C036
:100B40006D81262F269526952695121740F4402F65
:100B500068E0CE010E943A051F5F085FF1CF677021
:100B600059F0412F440F440F440FCE01DF91CF9134
:100B70001F910F910C943A05DF91CF911F910F9126
:100B8000089521E0FC01208329E02183089522E0DB
:100B9000240FDC012C932DE011962C931197FB016F
:100BA000219112962C9350E0BF0103960C94C4112E
:100BB000FC01DB0185E080838FE0818311968C91BD
:100BC000119783838C91828313968C9113978583DD
:100BD00012968C918483089522E0240FDC012C93DB
:100BE00025E111962C931197FB01219112962C93DC
:100BF00050E0BF0103960C94C41121E0FC01208356
:100C000023E12183089510921205FC01E85FFE4F55
:100C1000108231961082EAE0F4E0DF0111971C9215
:100C20001082B19685E0E231F807B9F708950F9385
:100C30001F93CF93DF93EC0109814AE050E0602FCE
:100C40008BEA95E00E945D0F6FE171E08BEA95E021
:100C50000E94640E10E0FE01E10FF11D40E150E042
:100C600061818BEA95E00E945D0F63E674E08BEA98
:100C700095E00E943F0E1F5F011768F762E674E07F
:100C80008BEA95E0DF91CF911F910F910C94810E2B
:100C90008EBD00000DB407FEFDCF8EB50895909176
:100CA0002F02923019F0933019F01BC020E001C0E0
:100CB00021E03DB3882351F081E090E0022E01C095
:100CC000880F0A94EAF7382B3DBB089581E090E045
:100CD000022E01C0880F0A94EAF7809583238DBB0A
:100CE0000895FFCF0F931F93CF93DF93EC01F894F8
:100CF00000910704109106047894E0910604809115
:100D00000704E81761F191E29E9FF0011124E2507F
:100D1000FD4FDE0101900D929A95E1F720910604B6
:100D200030E02F5F3F4F27703327209306048091D8
:100D30001205882349F062E271E08BEA95E00E9497
:100D4000640ECE010E941706802F90E001968770F6
:100D50009927181306C081E00E944F0602C080E068
:100D600001C081E0DF91CF911F910F910895109202
:100D700014050E94D80F88E094E00E9403068EEFCD
:100D800092E00E94030661E0809131020E942311EB
:100D900062E080912F020E94231161E08091300275
:100DA0000E94231161E0809131020E945C1164E68F
:100DB00070E080E090E00E94971060E08091310246
:100DC0000E945C1161E0809131020E945C1160E040
:100DD0008DE00E945C1160E08BE00E945C1161E09C
:100DE000809130020E945C1160E08DE00E945C11F5
:100DF0008FEF80932E0280912F02823019F410928F
:100E00002E0205C0833019F481E080932E026EE13A
:100E100070E080E090E00E94971080912E020E9486
:100E20000E1040E050E06CE178E080912E020C94CE
:100E30007B0F0F931F93CF93DF938C01FC014181B4
:100E40004032C0F52091110530E0E9012196C770CC
:100E5000DD27809110058C17C1F051E2529FC0012F
:100E6000539F900D1124FC01E85FFB4F108250E06E
:100E70004F5F5F4FB8016F5F7F4F875F9B4F0E944F
:100E8000C411C0931105C1E001C0C0E080911205FA
:100E9000882349F065E271E08BEA95E00E94640ED8
:100EA000C8010E94170660E0809130020E945C1128
:100EB0008C2F01C080E0DF91CF911F910F91089599
:100EC000CF92DF92EF92FF920F931F93CF93DF9316
:100ED000CDB7DEB7A2970FB6F894DEBF0FBECDBF79
:100EE00080914E06882399F09FB7F89480914E0622
:100EF000813059F48DB380934C062DB380914D060B
:100F0000809582238DBB9FBF02C090934C0681E7E2
:100F10008CBD81E08DBD60E0809130020E945C114B
:100F20008091100590911105891709F472C090E025
:100F300021E2289FF001299FF00D1124E85FFB4F6B
:100F4000DE01119601900D922A95E1F701968770C6
:100F50009927809310051A81812F0E94480680935B
:100F600013058B810E94480680931405112349F0D4
:100F7000412F50E0282F30E02417350714F48FEF6D
:100F8000810F982F803208F09FE17E0184E0E80E07
:100F9000F11C85E1C82E85E0D82E8601802F8C19A2
:100FA000891758F4F70181917F019AA30E9448069E
:100FB000F80181938F019AA1F1CF61E08091300215
:100FC0000E945C1180914E06882361F09FB7F894CF
:100FD00020914E0680914C06213019F48DBB9FBFA5
:100FE00001C08FBF83B7816083BF40E050E06CE1F8
:100FF00078E080912E020E947B0F909110058091E5
:101000001105981741F060E0809130020E945C1158
:1010100002C01A82A0CF83E195E0A2960FB6F894A1
:10102000DEBF0FBECDBFDF91CF911F910F91FF901B
:10103000EF90DF90CF900895CF93DF9383B78E7FAB
:1010400083BF80912E020E949B0F0E946007FC01CB
:101050004181442391F16091070470E0EB012196F6
:10106000C770DD27209106042C1731F151E2569FFD
:101070009001579F300D1124F901E250FD4F10826D
:1010800050E04F5F5F4FBC016F5F7F4FC9018150E0
:101090009D4F0E94C411C0930704F89480910704E7
:1010A0008F5F8770909106047894891306C080E062
:1010B000DF91CF910C944F06FFCFDF91CF91089530
:1010C000262F269526952695820F911DFC01818954
:1010D00090E0677002C0959587956A95E2F78170F8
:1010E0000895CF93DF93FC01A5E3B5E080E090E0A5
:1010F000EF01C80FD91F198A198E1D9201968830E9
:101100009105B1F7109242051092410510924005E9
:1011100010923F058FEF80934A0580934905809395
:10112000480510924605109245051092440510920C
:10113000430510923E0510923D0510923405109221
:101140004C0510924B05808191819093730580939B
:1011500072058281809371058381948190937005DB
:1011600080936F05858180936E05DF91CF910C94FC
:10117000B7068EE495E00E94C1058DE495E00C94DD
:101180001907CF93DF93CDB7DEB766970FB6F89404
:10119000DEBF0FBECDBFCA01E0917205F0917305AD
:1011A00033E0639FE00DF11D11243397308131301E
:1011B000C9F42531B8F46983422F50E0BC01CE0157
:1011C00002962E8B0E94C4112E89422FBE016F5FA2
:1011D0007F4F8EE495E00E94C7058DE495E00E9464
:1011E000190701C080E066960FB6F894DEBF0FBE07
:1011F000CDBFDF91CF910895CF93DF9300D000D082
:10120000CDB7DEB79A8389837C836B83BE016F5F22
:101210007F4F8EE495E00E94D8058DE495E00E9412
:1012200019070F900F900F900F90DF91CF910895B5
:101230001F93CF93DF93CDB7DEB765970FB6F894C2
:10124000DEBF0FBECDBF142FE0917205F091730584
:1012500093E0899FE00DF11D1124339721813281A4
:101260002230310519F024303105C1F41531B0F4C4
:101270008983412F50E0CE0102960E94C411412F74
:10128000BE016F5F7F4F8EE495E00E94EC051092E7
:1012900047058DE495E00E94190701C080E065963E
:1012A0000FB6F894DEBF0FBECDBFDF91CF911F9177
:1012B00008958EE495E00E94FD058DE495E00C9480
:1012C00019070F931F93CF93DF93EC018B01CB0191
:1012D0000E947206F8019281983839F0993851F1DC
:1012E0009638A9F520E030E017C020E030E00F5F2D
:1012F0001F4FD801A20FB31F12969C911297FE01A7
:10130000E20FF31F918B1A969C91918F2F5F3F4FA5
:101310002830310571F71BC0FE01E20FF31F118A5F
:10132000118E2F5F3F4F28303105B1F719A29F81F1
:101330009A870DC0F801238134813C872B87258152
:1013400036813E872D8727813085388B2F87DF9127
:10135000CF911F910F910895DF92EF92FF920F931B
:101360001F93CF93DF93EC01D62E61EC74E08BEAF0
:1013700095E00E943F0E4AE050E06D2D8BEA95E02B
:101380000E945D0F68EB74E08BEA95E00E943F0ECF
:101390008E01ED2CF12CC8018C1B9D0B8E159F0529
:1013A00044F4F80161918F018BEA95E00E94660E8A
:1013B000F2CF65EB74E08BEA95E00E943F0E8E0160
:1013C000C8018C1B9D0B8E159F05A4F467E271E08C
:1013D0008BEA95E00E94640EF80181918F01682FDD
:1013E000772767FD709540E150E08BEA95E00E9419
:1013F000480FE6CF62EB74E08BEA95E00E94810E25
:101400004D2DBE0184E795E0DF91CF911F910F91A3
:10141000FF90EF90DF900C948204853839F0863885
:1014200041F0813861F46CEF74E005C061EF74E065
:1014300002C06BEC74E08BEA95E00C94810E089589
:10144000089520914E06222399F03FB7F8942091F9
:101450004E06213059F42DB320934C064DB3209104
:101460004D06209524232DBB3FBF02C030934C0670
:101470008CBD9DBD089580914E06882361F09FB775
:10148000F89420914E0680914C06213019F48DBBC2
:101490009FBF08958FBF08956BE271E08BEA95E0DE
:1014A0000E94930EF8940E94D80F61E086E00E949B
:1014B0005C112FEF81EE94E0215080409040E1F7E5
:1014C00000C0000060E086E00E945C112FEF81EE1A
:1014D00094E0215080409040E1F700C0000061E0BE
:1014E00086E00E945C118DE590E00E94210A60E098
:1014F0008AE00E945C1180E10E94480688E40E9414
:10150000480661E08AE00E945C110E943B0A7894E0
:101510006EE371E08BEA95E00C94930E63E571E065
:101520008BEA95E00E94930E1092B000E1EBF0E0A0
:101530001082A0E7B0E08C9181608C938081846000
:10154000808368E671E08BEA95E00C94930E6FE778
:1015500071E08BEA95E00E94930E5B9AE9E6F0E079
:1015600080818860808380818B7F808369E971E0DE
:101570008BEA95E00C94930E65EB71E08BEA95E0B5
:101580000E94930E61E086E00E94231161E08AE0F0
:101590000E942311219A61E08AE00E945C1168ECAC
:1015A00071E08BEA95E00C94930ECF93DF93EC01FE
:1015B000BC018BEA95E00E94930E4AE0BE0184E7ED
:1015C00095E00E94820484E795E0DF91CF910C942E
:1015D00091031F920F920FB60F9211248F939F9336
:1015E000AF93BF938091A7059091A805A091A905FD
:1015F000B091AA050196A11DB11D8093A7059093F6
:10160000A805A093A905B093AA05BF91AF919F919A
:101610008F910F900FBE0F901F9018956DED71E098
:101620008BEA95E00E94930E109285001092840040
:10163000A0E8B0E01C92E1E8F0E0108287E090E0E2
:1016400090938900809388008C9180648C93808132
:1016500088608083808181608083219A63EF71E05C
:101660008BEA95E00C94930E69E974E08BEA95E0BF
:101670000E94810E26E040E855E260E070E08BEACF
:1016800095E00E94FA0C6CE774E08BEA95E00E940A
:10169000810E6CEA79E084E795E00E948D036DE0AD
:1016A0007AE084E795E00E9489030E94BC0A0E94C8
:1016B0000E0B0E944C0A0E94A70A0E948E0A40E567
:1016C00050E060E070E084E795E00E941D0566E66A
:1016D00074E08BEA95E00C94810E8DE590E00E9419
:1016E000210A60E08AE00E945C116BE072E08BEA04
:1016F00095E00E94930E88E30E94480680E00E94D5
:10170000480680939F0580E00E9448068093A005CC
:1017100020919F0590E0922B9093A2058093A105C4
:101720000E943B0A61E08AE00E945C118091A10561
:101730009091A20508950E946D0BA0E0B0E0809307
:10174000A3059093A405A093A505B093A605809149
:10175000A3059091A405A091A505B091A6054AE026
:1017600065E975E00E94CD1185E995E00E94D50AF2
:101770002FEF81EE94E0215080409040E1F700C0CF
:10178000000008950E94BF100E94200A0E94340B9E
:10179000C4E4DCE00E949B0B2097E1F30E94440C20
:1017A000F9CF1F920F920FB60F9211242F933F93F0
:1017B0004F935F936F937F938F939F93AF93BF9359
:1017C000EF93FF930E946D0BA0E0B0E08093A30520
:1017D0009093A405A093A505B093A6058091A305B9
:1017E0009091A405A091A505B091A6054AE065E9F0
:1017F00075E00E94CD1185E995E00E94D50AFF9120
:10180000EF91BF91AF919F918F917F916F915F9178
:101810004F913F912F910F900FBE0F901F901895F1
:1018200027E042E064E084E795E00C945303FC0178
:10183000818D228D90E0805C9F4F821B91098F7378
:1018400099270895FC01918D828D981731F0828D32
:10185000E80FF11D858D90E008958FEF9FEF0895BB
:10186000FC01918D828D981761F0828DDF01A80FA8
:10187000B11D5D968C91928D9F5F9F73928F90E0CA
:1018800008958FEF9FEF089584EB9DE0892B49F039
:1018900080E090E0892B29F00E94B40D81110C9416
:1018A00000000895FC01848DDF01A80FB11DA35A2B
:1018B000BF4F2C91848D90E001968F739927848F70
:1018C000A689B7892C93A089B1898C9180648C9367
:1018D000938D848D981306C00288F389E02D808152
:1018E0008F7D80830895CF93DF93EC01888D8823CB
:1018F000C9F0EA89FB89808185FD05C0A889B9897D
:101900008C9186FD0FC00FB607FCF5CF808185FF57
:10191000F2CFA889B9898C9185FFEDCFCE010E94C5
:10192000520CE7CFDF91CF910895CF92DF92FF92D3
:101930000F931F93CF93DF931F92CDB7DEB76C0148
:10194000DC015B969C915B975C968C915C979813FD
:1019500007C05096ED91FC915197808185FD32C072
:10196000F601038D10E00F5F1F4F0F731127F02E4C
:10197000F601848DF81211C00FB607FCF9CFD6011D
:101980005096ED91FC915197808185FFF1CFC60172
:1019900069830E94520C6981EBCF838DE80FF11DA2
:1019A000E35AFF4F6083D6015B960C935B97529688
:1019B000ED91FC91539780818062808381E05896FD
:1019C0008C930DC0D6015696ED91FC91579760838C
:1019D0005096ED91FC91519780818064808381E0E5
:1019E00090E00F90DF91CF911F910F91FF90DF90CA
:1019F000CF900895BF92CF92DF92EF92FF92CF9354
:101A0000DF93EC016A017B01B22EE889F98982E05B
:101A10008083411581EE580761057105A1F060E0F2
:101A200079E08DE390E0A70196010E949311215087
:101A30003109410951095695479537952795211543
:101A400080E1380798F0E889F989108260E874E845
:101A50008EE190E0A70196010E9493112150310977
:101A6000410951095695479537952795EC85FD8590
:101A70003083EE85FF852083188EEC89FD89B08246
:101A8000EA89FB89808180618083EA89FB89808182
:101A900088608083EA89FB89808180688083EA8905
:101AA000FB8980818F7D8083DF91CF91FF90EF90C4
:101AB000DF90CF90BF9008951F920F920FB60F92B4
:101AC00011242F938F939F93EF93FF93E091BB0586
:101AD000F091BC058081E091C105F091C20582FDC5
:101AE00012C090818091C4058F5F8F732091C505CE
:101AF000821751F0E091C405F0E0E555FA4F958F5B
:101B00008093C40501C08081FF91EF919F918F91D7
:101B10002F910F900FBE0F901F9018951F920F924C
:101B20000FB60F9211242F933F934F935F936F93B0
:101B30007F938F939F93AF93BF93EF93FF938BEA22
:101B400095E00E94520CFF91EF91BF91AF919F9150
:101B50008F917F916F915F914F913F912F910F9056
:101B60000FBE0F901F9018958BEA95E00E94170CFE
:101B700021E0892B09F420E0822F08951092AE0510
:101B80001092AD0588EE93E0A0E0B0E08093AF0541
:101B90009093B005A093B105B093B20582E292E0B4
:101BA0009093AC058093AB0585EC90E09093B805DD
:101BB0008093B70584EC90E09093BA058093B905C3
:101BC00080EC90E09093BC058093BB0581EC90E0A5
:101BD0009093BE058093BD0582EC90E09093C00584
:101BE0008093BF0586EC90E09093C2058093C10579
:101BF0001092C4051092C5051092C6051092C70533
:101C00000895CF92DF92EF92FF920F931F93CF939D
:101C1000DF936C017A01EB01E60EF71E00E010E0A5
:101C2000CE15DF0561F06991D601ED91FC9101902F
:101C3000F081E02DC6010995080F191FF1CFC801E9
:101C4000DF91CF911F910F91FF90EF90DF90CF9098
:101C500008956115710581F0DB010D900020E9F711
:101C6000AD0141505109461B570BDC01ED91FC9130
:101C70000280F381E02D099480E090E00895EF92D6
:101C8000FF920F931F93CF93DF938C01FB01C0E072
:101C9000D0E064917F018FEFE81AF80A662361F0C3
:101CA000D801ED91FC910190F081E02DC8010995DA
:101CB000C80FD91FF701EDCFCE01DF91CF911F9152
:101CC0000F91FF90EF9008950C94290EDC01ED9197
:101CD000FC910190F081E02D09940F931F93CF9315
:101CE000DF93EC016DE00E94660E8C016AE0CE018C
:101CF0000E94660E800F911FDF91CF911F910F916F
:101D000008950F931F93CF93DF93EC010E943F0E32
:101D10008C01CE010E946D0E800F911FDF91CF913B
:101D20001F910F9108950F931F93CF93DF93EC01B1
:101D30000E94290E8C01CE010E946D0E800F911F12
:101D4000DF91CF911F910F9108958F929F92AF9243
:101D5000BF92CF92DF92EF92FF920F931F93CF9398
:101D6000DF93CDB7DEB7A1970FB6F894DEBF0FBEF5
:101D7000CDBF7C01C42EE52FCB01D22E19A221E0CC
:101D80002D1510F02AE0D22E8E010F5D1F4F8D2CE5
:101D9000912CA12CB12C6C2D7E2FA50194010E94B9
:101DA00093118C2DD29E80191124015011098A3073
:101DB00014F4805D01C0895CF80180832115310530
:101DC0004105510521F0C22EE32FCA01E4CFB8012D
:101DD000C7010E94290EA1960FB6F894DEBF0FBE70
:101DE000CDBFDF91CF911F910F91FF90EF90DF90CA
:101DF000CF90BF90AF909F908F900895CF92DF9239
:101E0000EF92FF920F931F93CF93DF93EC016A0140
:101E10007B012115310579F4E881F9810190F08188
:101E2000E02D642FDF91CF911F910F91FF90EF90E4
:101E3000DF90CF9009942A303105E9F477FF1AC07A
:101E40006DE20E94660E8C0144275527BA014C1999
:101E50005D096E097F092AE0CE010E94A50E800F60
:101E6000911FDF91CF911F910F91FF90EF90DF9025
:101E7000CF9008952AE0B701A601CE01DF91CF915E
:101E80001F910F91FF90EF90DF90CF900C94A50ED3
:101E90009A01AB01662757FD6095762F0C94FE0ED4
:101EA0002115310541F4DC01ED91FC910190F081A7
:101EB000E02D642F09940C94A50E9A01462F50E052
:101EC00060E070E00C94500F0F931F93CF93DF935B
:101ED000EC019A01462F50E060E070E00E94500F44
:101EE0008C01CE010E946D0E800F911FDF91CF916A
:101EF0001F910F9108958230E8F4E82FF0E0EE0F83
:101F0000FF1FE85BF94F71836083813041F080915E
:101F100069008C7F842B80936900E89A08958091F2
:101F20006900440F551F440F551F837F842B8093F6
:101F30006900E99A0895823068F4813011F0E898D8
:101F400001C0E998E82FF0E0EE0FFF1FE85BF94FC2
:101F50001182108208951F920F920FB60F921124D2
:101F60002F933F934F935F936F937F938F939F93A1
:101F7000AF93BF93EF93FF938091480690914906EA
:101F8000892B29F0E0914806F09149060995FF91C7
:101F9000EF91BF91AF919F918F917F916F915F91E1
:101FA0004F913F912F910F900FBE0F901F9018955A
:101FB000CF93CFB7F89480914F06811127C0E2E408
:101FC000F5E08491EEE2F5E09491E82FF0E0EE0F79
:101FD000FF1FEA5AFA4FA591B4918C91892321F4FD
:101FE00061E08AE00E945C1161E08AE00E942311B6
:101FF0008CB580618CBD8CB580648CBD61E08DE05A
:102000000E94231161E08BE00E94231180914F0612
:102010008F5F80934F06CFBFCF9108952FB7F8946D
:10202000882339F0813039F082E080934E0690E0C9
:1020300003C091E001C092E080914D06892B80930E
:102040004D0680914E06811103C081E080934E06BB
:102050002FBF08951F920F920FB60F9211242F9346
:102060003F938F939F93AF93BF938091510690912D
:102070005206A0915306B09154063091500623E0C9
:10208000230F2D3720F40196A11DB11D05C026E8B0
:10209000230F0296A11DB11D209350068093510677
:1020A00090935206A0935306B09354068091550620
:1020B00090915606A0915706B09158060196A11D21
:1020C000B11D8093550690935606A0935706B09382
:1020D0005806BF91AF919F918F913F912F910F9093
:1020E0000FBE0F901F9018953FB7F894809155063A
:1020F00090915606A0915706B091580626B5A89B18
:1021000005C02F3F19F00196A11DB11D3FBF6627E5
:10211000782F892F9A2F620F711D811D911D42E02A
:10212000660F771F881F991F4A95D1F70895CF92A0
:10213000DF92EF92FF92CF93DF936B017C010E94BD
:102140007410EB01C114D104E104F10489F00E9480
:1021500092110E9474106C1B7D0B683E734090F3CB
:1021600081E0C81AD108E108F108C851DC4FEACF74
:10217000DF91CF91FF90EF90DF90CF90089578940A
:1021800084B5826084BD84B5816084BD85B582607C
:1021900085BD85B5816085BDEEE6F0E0808181601A
:1021A0008083E1E8F0E0108280818260808380811A
:1021B00081608083E0E8F0E0808181608083E1EBF2
:1021C000F0E0808184608083E0EBF0E080818160DA
:1021D0008083EAE7F0E08081846080838081826090
:1021E0008083808181608083808180688083109279
:1021F000C1000895833081F028F4813099F0823055
:10220000A1F008958730A9F08830B9F08430D1F476
:10221000809180008F7D03C0809180008F778093B4
:102220008000089584B58F7702C084B58F7D84BD0A
:1022300008958091B0008F7703C08091B0008F7DAA
:102240008093B0000895CF93DF9390E0FC01EC5DA4
:10225000FA4F2491FC01E85CFA4F8491882349F1FC
:1022600090E0880F991FFC01EA5AFA4FA591B491AA
:10227000845B9A4FFC01C591D4919FB7611108C04E
:10228000F8948C91209582238C93888182230AC0B4
:10229000623051F4F8948C91322F309583238C93D3
:1022A0008881822B888304C0F8948C91822B8C9334
:1022B0009FBFDF91CF9108950F931F93CF93DF932B
:1022C0001F92CDB7DEB7282F30E0F901E05FFA4F5B
:1022D0008491F901EC5DFA4F1491F901E85CFA4F31
:1022E00004910023C9F0882321F069830E94FA1029
:1022F0006981E02FF0E0EE0FFF1FE45BFA4FA5913C
:10230000B4919FB7F8948C91611103C0109581230B
:1023100001C0812B8C939FBF0F90DF91CF911F91B4
:102320000F9108950895A1E21A2EAA1BBB1BFD016F
:102330000DC0AA1FBB1FEE1FFF1FA217B307E407A4
:10234000F50720F0A21BB30BE40BF50B661F771FFC
:10235000881F991F1A9469F76095709580959095DC
:102360009B01AC01BD01CF010895EE0FFF1F059049
:10237000F491E02D0994FB01DC0102C005900D925F
:1023800041505040D8F70895FB01DC0102C0019094
:102390000D9241505040D8F70895BB27FB015527B7
:1023A000AA27880F991FAA1FA41710F0A41B8395B2
:1023B0005051B9F7A05DAA3308F0A95DA193009729
:1023C00079F7B111B1931192CB010C94E711DC01B3
:1023D000FC01672F71917723E1F7329704C07C915C
:1023E0006D9370836291AE17BF07C8F30895F89498
:0223F000FFCF1D
:1023F20001800001080001020001020001800000CA
:10240200000000E004010EDC02E90214032B0320A9
:102412003A00204500430020307800616463206365
:102422006F6E6669672073746172746564006164BB
:102432006320636F6E66696720636F6D706C65748D
:1024420065640074696D657220636F6E66696720EA
:10245200737461727465640074696D657220636F70
:102462006E66696720636F6D706C65746564006980
:102472006E746572727570747320636F6E666967CD
:10248200207374617274656400696E74657272752A
:1024920070747320636F6E66696720636F6D706C12
:1024A2006574656400636F6E66696750696E732058
:1024B2007374617274656400636F6E6669675069F4
:1024C2006E7320636F6D706C6574656400636F6E0C
:1024D2006669674D656761436C6B20537461727402
:1024E200656400636F6E6669674D656761436C6B17
:1024F20020436F6D706C6574656400506572666F21
:10250200726D696E6720726561642E2E2E00000066
:0E2512000000950C010E170C300C220C730CFF
:00000001FF
